:020000040800F2
:10000000800800200D010008351000085D0E000872
:10001000E90E00081B02000867130008000000003A
:10002000000000000000000000000000691000084F
:100030001D020008000000003710000889110008A8
:1000400027010008270100082701000827010008F0
:1000500027010008270100082701000827010008E0
:1000600027010008270100082701000827010008D0
:1000700027010008270100082701000827010008C0
:1000800027010008270100082701000827010008B0
:1000900027010008270100082701000827010008A0
:1000A0002701000827010008270100082701000890
:1000B0002701000827010008270100082701000880
:1000C0002701000827010008270100082701000870
:1000D0002701000827010008270100082701000860
:1000E000270100082701000827010008DFF810D0C9
:1000F00000F072F800480047A1160008AFF3008036
:100100008008002080F30888704700000648804778
:1001100006480047FEE7FEE7FEE7FEE7FEE7FEE7EC
:10012000FEE7FEE7FEE7FEE7EB110008ED00000842
:10013000202A04DB203A21FA02F00021704721FA3C
:1001400002F3D040C2F120029140084319467047A3
:10015000D2B201E000F8012B491EFBD27047002209
:10016000F6E710B513460A4604461946FFF7F0FFB6
:10017000204610BD2DE9F05F0546002092469B46C3
:1001800088460646814640241BE0284641464746AD
:100190002246FFF7CDFF53465A46C01A914110D36D
:1001A00011461846224600F029F82D1A67EB01087F
:1001B0004F4622460120002100F020F817EB0009ED
:1001C0004E41201EA4F10104DFDC484631462A4698
:1001D0004346BDE8F09F0000064C074D06E0E0688E
:1001E00040F0010394E8070098471034AC42F6D37E
:1001F000FFF780FFEC1600080C170008202A04DB2C
:10020000203A00FA02F1002070479140C2F1200329
:1002100020FA03F3194390407047FEE7704730B56A
:1002200085B00C46054600F04BF900200295009081
:10023000CDE9034004A9684600F0A4F800F0F6F800
:1002400005B0012030BD72B6FEE70000064900206F
:10025000C8610648016941F004010161016941F08A
:100260004001016170470000600000200020024052
:10027000064A0021D16106490A6942F002020A6178
:100280004861086940F04000086170476000002044
:1002900000200240044B0022DA61044A136943F053
:1002A00001031361018070476000002000200240BC
:1002B00014480022C168CB06134904D5CA6942F02C
:1002C0000202CA611022C3685B0705D5CB6943F0FF
:1002D0000103CB6142F00402C369DB0707D0CB699D
:1002E00043F00403CB61C16921F00101C161A2F5B2
:1002F0008071013901D0C2607047C16921F00101EC
:10030000C1617047002002406000002070B50546C2
:1003100000F0DAF90646114C09E0681C07D025B157
:1003200000F0D2F9801BA84201D9032070BDE0681B
:10033000C007F2D1E068800601D52020E060E068C7
:10034000C00605D4E069C00702D1E068400703D5C4
:10035000FFF7AEFF012070BD002070BD00200240FD
:1003600070B5044600F0B0F90546601C02D00448A0
:100370000078044400F0A8F9401BA042FAD370BDF5
:10038000000000202DE9F047054626480F460126CB
:10039000017E01290FD00121814601762868DFF80E
:1003A00088804CF25034022808D0A2462046FFF73D
:1003B000ADFFA8B131E00220BDE8F0872046FFF78D
:1003C000A5FF08BB0120FFF741FF2046FFF79EFF76
:1003D000D8F81010064621F00401C8F810101CE0EF
:1003E0004FF0FF303860AC6811E02046FFF740FF67
:1003F0005046FFF78BFFD8F81010060021F00201DD
:10040000C8F8101001D03C6007E004F58064D5E91D
:10041000020100EB8120A042E7D8002189F81810E2
:100420003046C9E76000002000200240034801690F
:1004300041F080010161002070470000002002406F
:100440002DE9F05F07461C4888460024017E1546CA
:100450001E46012909D00121814601764CF2503A0D
:100460005046FFF753FF18B122E00220BDE8F09F8D
:10047000012F02D0022F00D00427D346DFF83CA082
:10048000220128463146FFF753FE81B208EB4400B3
:10049000FFF700FF5846FFF739FFDAF8102022F087
:1004A0000102CAF8102018B9641CE4B2BC42E7D3B8
:1004B000002289F81820D9E76000002000200240BF
:1004C000064900200A69120607D5054A4A60054A0E
:1004D0004A600969090600D50120704700200240E2
:1004E00023016745AB89EFCD2DE9F84FDFF8B891CF
:1004F0000024A9F1040B23460F2709F1040AABF1EC
:10050000040EC9E00125A5402A40AA427DD1674ECC
:10051000D1F804C0ACEB0608B44532D014DCBCF111
:10052000030F3AD009DCBCF1000F2AD0BCF1010F57
:100530001CD0BCF1020F31D11DE0BCF1110F17D05E
:10054000BCF1120F2AD119E0B8F5881F19D006DCCA
:10055000B8F5803F15D0B8F5801F1FD111E0B8F570
:10056000001F0ED0B8F5041F18D10AE0CB6815E0C3
:10057000CB681B1D12E0CB6808330FE0CB680C334F
:100580000CE08B682BB1012B4FF0080303D04561C1
:1005900004E0042302E0056100E00023FF2A01D803
:1005A000064601E000F104064FEA840501D9A5F1F1
:1005B0002005D6F8008007FA05FC28EA0C0803FAA3
:1005C00005F548EA0508C6F800804D68ED0062D5DB
:1005D000374DAE6946F00106AE61AD6924F0030601
:1005E00005F001050095334D06EB050CDCF80850CD
:1005F000A607360F07FA06F825EA0805DFF8B880DF
:10060000404503D14FF0000817E044E0DFF8AC802C
:10061000404502D14FF001080FE0DFF8A4804045CB
:1006200002D14FF0020808E0DFF89880404502D17F
:100630004FF0030801E04FF0040808FA06F848EA12
:100640000508CCF808804D68D9F80060ED024D46E9
:1006500001D5164300E096432E604D68DAF800603D
:10066000AD02554601D5164300E096432E604D6815
:10067000DBF80060AD035D4601D5164300E096430C
:100680002E604D68DEF80060ED03754601D5164317
:1006900000E096432E60641C0D682A46E5407FF416
:1006A00031AFBDE8F88F00000804014000001110D0
:1006B000001002400000014000080140000C014011
:1006C000001001400014014001488068704700009C
:1006D0000000002002488168027811448160704760
:1006E00000000020074810B5016841F010010160CA
:1006F000032000F067F80F2000F006F800F024F85F
:10070000002010BD0020024070B50D4D04464FF48E
:100710007A712878B1FBF0F00A490968B1FBF0F072
:1007200000F0CEFA48B9102C07D200222146501E04
:1007300000F028F800206C6070BD012070BD000042
:10074000000000200C0000200C4808B5816941F031
:1007500001018161816901F001010091C16941F0EC
:100760008051C161C06900F0805000900448416828
:1007700021F0E06141F00071416008BD00100240CD
:1007800000000140F0B40E4B1B680C46C3F302237B
:10079000C3F10705042D00D90425191D072901D22D
:1007A000002300E0DB1E012606FA05F1491E214068
:1007B00099409E40761E16403143F0BC00F0E4BDE7
:1007C0000CED00E0064900F0070208684FF6FF0351
:1007D000184040EA0220034A1043086070470000B6
:1007E0000CED00E00000FA052DE9F0470F4605008A
:1007F00061D0434E306800F00700B84209D230683B
:1008000020F0070038433060306800F00700B8423D
:1008100051D128683B4C810712D5400703D5606849
:1008200040F4E06060602878000703D5606840F419
:10083000605060606068A96820F0F0000843606064
:100840002878C00728D06868012810D021680228BD
:1008500010D0890700292EDA616821F003010143D5
:100860006160FFF731FF804641F288390DE0216871
:100870008903EFE78901EDE7FFF726FFA0EB080109
:10088000494502D90320BDE8F0876068696800F037
:100890000C00B0EB810FEFD1306800F00700B842D8
:1008A0000BD9306820F0070038433060306800F022
:1008B0000700B84201D00120E5E72878400705D5B8
:1008C0006068E96820F4E060084360602878000709
:1008D00006D56068296920F4605040EAC100606074
:1008E00000F038F86168084AC1F30311515CC84050
:1008F0000649086006480068FFF706FF0020C2E7C7
:100900000020024000100240D21600080C00002017
:10091000040000200448054900684968044AC1F3FE
:100920000221515CC84070470C00002000100240BA
:10093000E21600080448054900684968044AC1F302
:10094000C221515CC84070470C00002000100240DA
:10095000E21600080E4A51680E4801F00C03042B01
:1009600011D0082B0FD10C48C1F38343C903C05CDD
:100970000AD55168084AC1F34041921E515C054AAC
:100980005043B0FBF1F07047044948437047000002
:100990000010024000127A00C216000800093D0053
:1009A0002DE9F84F040070D02078C04DC00749D021
:1009B0006868C0F38100012807D06868C0F381002F
:1009C000022809D16868C00306D52868800339D594
:1009D00060680028E7D035E06068B0F5803F0BD054
:1009E00010B1B0F5A02F11D0286820F48030286015
:1009F000286820F4802002E0286840F480302860D5
:100A0000606890B1FFF760FE06460AE0286840F48F
:100A100080202860F0E700BFFFF756FE801B6428A7
:100A200073D828688003F7D50CE0FFF74DFE064623
:100A300005E000BFFFF748FE801B6428F0D8286857
:100A40008003F7D420789A4E80074FF001094FF0C9
:100A5000000839D5686810F00C0F07D06868C0F33B
:100A60008100022809D16868C00306D4286880077D
:100A700014D52069012808D110E02069B0B1C6F86A
:100A80000090FFF721FE074605E00AE1FFF71CFE94
:100A9000C01B0228C4D828688007F7D52868616978
:100AA00020F0F80040EAC10028600DE0C6F80080A0
:100AB000FFF70AFE074604E0FFF706FEC01B022808
:100AC00023D828688007F7D4207800072CD57948E8
:100AD000A169D9B1C0F80090FFF7F6FD074604E020
:100AE000FFF7F2FDC01B02280FD8686A8007F7D510
:100AF00071484FF4FA510068B0FBF1F0009000BF6C
:100B00000098411E0091FAD20EE080E0C0F800800B
:100B1000FFF7DAFD074604E0FFF7D6FDC01B022809
:100B200075D8686A8007F7D42078400760D5E869EF
:100B30000027C00008D4E86940F08050E861E86907
:100B4000012700F0805000905C480168C90513D46B
:100B50000168834641F480710160FFF7B5FD82466C
:100B600006E000BFFFF7B0FDA0EB0A0064284ED8F6
:100B7000DBF80000C005F5D5E06801280AD008B10F
:100B8000052813D0286A20F001002862286A20F086
:100B9000040002E0286A40F001002862E06841F2A7
:100BA000883B98B1FFF790FD82460BE0286A40F041
:100BB00004002862EEE700BFFFF786FDA0EB0A0104
:100BC00059455AD8286A8007F6D50CE0FFF77CFD16
:100BD000824605E0FFF778FDA0EB0A0159454CD8A5
:100BE000286A8007F6D41FB1E86920F08050E861D8
:100BF000E06988B36968C1F38101022944D0022801
:100C0000C6F8608004D0FFF75FFD044638E034E0AA
:100C1000FFF75AFD074604E0FFF756FDC01B022808
:100C20002BD828688001F7D4206AB0F5803F05D121
:100C30006868A16820F4003008436860D4E90801BE
:100C40000843696821F4741108436860C6F860902D
:100C5000FFF73AFD044606E025E000BFFFF734FD4C
:100C6000001B022809D828688001F7D51BE000BFC7
:100C7000FFF72AFD001B022802D90320BDE8F88FE8
:100C800028688001F4D40EE00128F7D06868226A51
:100C900000F48031914204D1616A00F470108842FE
:100CA00001D00120EAE70020E8E700000010024040
:100CB00000004242800442420C00002000700040CC
:100CC00010B5401EB0F1807F01D3012010BD4FF060
:100CD000E02460610F21601700F056FB0020A06146
:100CE00007202061002010BD70B5040004D094F8E6
:100CF0004100002510B106E0012070BD84F840508D
:100D0000204600F023F8242084F841002068C168C0
:100D100021F40051C160204600F090FA206801697A
:100D200021F4904101612068416921F02A0141616B
:100D30002068C16841F40051C1606564202084F8D6
:100D4000410084F842006563002070BD30B585B075
:100D5000002400940194029403940068144988428A
:100D600024D11448816941F480418161816901F491
:100D700080410491816941F00401816180690E4DD7
:100D800000F0040004904FF40070009002200190E5
:100D90000320039069462846FFF7A6FB2815CDE9F6
:100DA0000004694628460294FFF79EFB05B030BD5B
:100DB0000038014000100240000801402DE9F843CE
:100DC000044690F84100984616460D46202802D069
:100DD0000220BDE8F88385B17EB100206064212047
:100DE00084F84100FFF770FCA6848146E684A06881
:100DF0002027B0F5805F02D003E00120E9E72069F9
:100E000010B12E4600250EE000260CE08021204681
:100E100000F070FAA8B9C6B116F8010B2168486055
:100E2000E08C401EE084E08C4B464FF00002CDF891
:100E300000800028EAD14FF04001204600F05AFA25
:100E400040B184F841700320C3E735F8020BC0F3CA
:100E50000800E3E784F841700020BAE7FEE70000ED
:100E600010B50168064A1140B1F1005F07D144682E
:100E70000068FFF747F9A446BDE81040604710BD81
:100E80000000FE2F094808B5816941F02001816109
:100E9000816901F020010091816941F004018161C3
:100EA000806900F00400009008BD000000100240BE
:100EB0000C4810B50A4901604FF4E131416000214E
:100EC00081600C22C160C0E904128161C161FFF739
:100ED0000BFF002803D0BDE81040FFF7B4B910BDE8
:100EE0000038014014000020FEE700002DE9F74F14
:100EF000ADF5806D91468A4623A000F035FA4FEAA1
:100F00009920834601465046FFF789F926A000F054
:100F10002BFA2DA000F028FA00241FE0DDF80004D1
:100F20004FF4807500EB84202A46694600F084F86F
:100F30000AEB84286E462F46FFF7C2FA5FF00005E1
:100F400008EB850156F8252000230220FFF778FAE8
:100F50006D1CBD42F4DBFFF769FA641CB4EB992FFA
:100F6000DCD31FA000F000FA22A000F0FDF95946E2
:100F7000DDF80004FFF753F926A000F0F5F90DF2B3
:100F80000C4DBDE8F08F00003E2053746172742058
:100F900065726173652064657320666C6173682E89
:100FA0002E2E2E2E2E0D0A003E20457261736520D6
:100FB00064657320666C61736820646F776E2E2E93
:100FC0002E2E2E2E0D0A00003E20537461727420C6
:100FD000636F70792E2E2E2E2E2E0D0A000000002B
:100FE0003E20436F707920646F776E2E2E2E2E2E4A
:100FF0002E0D0A003E205374617274206572617375
:10100000652073726320666C6173682E2E2E2E2EFF
:101010002E0D0A003E2045726173652073726320B5
:10102000666C61736820646F776E2E2E2E2E2E2EC6
:101030000D0A0000FEE7704710B5002305E000BF71
:1010400050F8234041F823405B1C9342F8DB10BD6D
:1010500008B500200090012269460248FFF7ECFF26
:10106000009808BDFCFF00087047000010B519A0EB
:1010700000F07AF918A000F077F921A000F074F9D7
:1010800015A000F071F9FFF7E3FF224CB0F1AA3F81
:101090000CD0B0F1FF3F07D0FFF7DAFF0146BDE803
:1010A00010401DA000F060B921A009E025A000F0CB
:1010B0005BF94FF4E04221462748FFF717FF27A0CE
:1010C00000F052F92BA000F04FF92046BDE8104087
:1010D000FFF7C6BE0D0A00002A2A2A2A2A2A2A2A2F
:1010E0002A2A2A2A2A2A2A2A2A2A2A2A2A2A2A2A60
:1010F0002A2A2A2A2A2A2A2A2A2A2A0D0A0000000B
:101100002A20426F6F744C6F61646572202A0D0A49
:1011100000000000002000083E204572726F723A05
:1011200025582121212E2E2E2E2E2E0D0A000000B4
:101130003E204E6F726D616C2073746172742E2E3E
:101140002E0A00003E205374617274207570646131
:1011500074652E2E2E0A0000009000083E20557067
:101160006461746520646F776E2E2E2E2E2E2E0DE8
:101170000A0000003E2053746172742041505031C7
:101180002E2E2E0D0A000000FFF7A4BA30B58FB046
:1011900028216846FEF7E3FF14210AA8FEF7DFFFC7
:1011A00001210804CDE900100024029402250491D5
:1011B000CDE907504FF4E01009906846FFF7F0FBC7
:1011C00008B172B6FEE70F20CDE90A054FF4806042
:1011D000CDE90C4002210AA80E94FFF705FB002878
:1011E00001D072B6FEE70FB030BD704701680C3118
:1011F00051E8002F22F4907241E80023002BF5D132
:101200000168143151E8002F22F0010241E8002367
:10121000002BF5D1016B012909D101680C3151E88E
:10122000002F22F0100241E80023002BF5D12021ED
:1012300080F84210002101637047000070B5044639
:1012400000680169E26821F440511143016121699C
:10125000A0680843616908432168CA6841F20C63C9
:101260009A430243CA6020684169A26921F440712F
:10127000114341611E492068884202D1FFF75AFBA1
:1012800001E0FFF747FB00EBC00101EB00126068D3
:1012900064218000B2FBF0F3B3FBF1F36FF01806AA
:1012A0007343B2FBF0F5B2FBF0F605EB8305322396
:1012B00003EB0515B5FBF1F5B6FBF1F605F0F0050E
:1012C00005EB0615B2FBF0F6B2FBF0F0B0FBF1F067
:1012D0006FF01802504306EB800003EB0010B0FBE8
:1012E000F1F0216800F00F002844886070BD000014
:1012F000003801402DE9F843984617460D4604464C
:10130000089E24E0701C22D0FFF7DEF9A0EB080055
:10131000B0421AD8CEB12068C168490717D5802DD0
:1013200015D0402D13D00168C94309070FD40168B7
:101330000025406800902046FFF758FF08206064B1
:1013400084F840500120BDE8F8830320FBE72068C3
:10135000006835EA000004D00020B842D2D0002056
:10136000F1E70120F9E7FEE70FB4054B10B503A93B
:10137000044A029800F028F810BC5DF814FB000045
:1013800089160008100000200907090E002804DB58
:1013900000F1E02080F80014704700F00F0000F129
:1013A000E02080F8141D704702E008C8121F08C131
:1013B000002AFAD170477047002001E001C1121FD6
:1013C000002AFBD1704700002DE9FF4F8DB09B46EE
:1013D0000F460446002606E025280BD05A460F99F2
:1013E0009047641C761C20780028F5D111B0304657
:1013F000BDE8F08F0025A8460122984900E005438A
:1014000014F8013F203B02FA03F00842F7D120789C
:101410002E2817D114F8010F45F004052A280ED004
:101420006FF02F022078A0F1300109290AD808EBCB
:10143000880102EB410100EB0108641CF2E757F858
:10144000048B641C20786C280DD004DC4C2812D04E
:101450006A2811D104E074280DD07A280CD10AE052
:1014600045F4001507E0617845F48015814202D10A
:10147000641C05F58015641C2078692844D008DCBC
:101480000028B3D0582867D063280FD0642808D12B
:101490003AE0702865D0732812D075285AD0782881
:1014A0005AD05A460F999047761CD5E017F8040B8E
:1014B0008DF8000000208DF80100E946012003E0CE
:1014C00057F8049B4FF0FF3069074FF0000501D437
:1014D0000AE06D1C45450DDA8542FADB19F8051066
:1014E0000029F6D106E06D1C8542FCDB19F80510D9
:1014F0000029F8D12E4404E019F8010B5A460F993F
:1015000090476D1EF8D2A7E00A200021CDE908011E
:10151000C5F3025002280CD001CFC117021E71F191
:1015200000020CDA0023D0EB030063EB01012D2253
:1015300008E0FF1D27F00707F7E80201EEE72A059C
:1015400004D52B228DF8282001223CE0EA073AD06E
:101550002022F7E70A2000E010200021CDE9080151
:1015600007E01020002145F00405CDE908014FF007
:101570000808C5F30250022810D001CF00214FF017
:10158000000A2A0720D52278702A0DD0DDE908C389
:101590008CF0100C5CEA030C0CD015E0FF1D27F05A
:1015A0000707F7E80201EAE740228DF828204FF00C
:1015B000010A0CE050EA010306D030238DF82830F0
:1015C0008DF82920022292462278582A04D024A29B
:1015D0000DF120090B9209E026A2F9E7DDE90823C5
:1015E000FEF7C8FD0B9B9B5C09F8013D50EA010228
:1015F000F4D1ADEB090020300890680701D44FF01A
:1016000001080899884503DD0898A8EB000000E070
:1016100000208046002506E00AA85A46405D0F9942
:1016200090476D1C761C5545F6DB04E030205A4689
:101630000F999047761CB8F10001A8F10108F5DC7C
:1016400005E019F8010B5A460F999047761C089946
:10165000481E08900029F4DC641CC4E60928010037
:101660003031323334353637383961626364656618
:1016700000000000303132333435363738394142DA
:10168000434445460000000013B54FF6FF730122A6
:1016900069460248FFF792FB00981CBD1400002029
:1016A000FFF720F8FFF772FDFFF7ECFBFFF700FCF8
:1016B00042F21074FFF7DAFC2046FEF751FEF9E71C
:1016C000010202030405060708090A0B0C0D0E0FA0
:1016D00010100000000000000000010203040607D3
:1016E0000809000000000102030400000C170008B4
:1016F0000000002014000000A813000820170008B4
:10170000140000206C080000B8130008010000005D
:10171000100000000000000000127A00000000002D
:04000005080000ED02
:00000001FF
