:020000040800F2
:10000000382E00209D01000819540008A343000861
:10001000E55200080D130008B96300080000000055
:1000200000000000000000000000000005010008C2
:10003000AB1400080000000049010008ED59000859
:10004000B7010008B7010008B7010008B7010008B0
:10005000B7010008B7010008B7010008B7010008A0
:10006000B7010008B7010008B7010008B701000890
:10007000B701000869140008B701000875140008EA
:10008000B7010008B7010008B7010008B701000870
:100090007D620008B7010008B7010008B701000839
:1000A000B7010008955A0008B7010008B701000819
:1000B000A15A0008B55A0008D55A0008B70100082F
:1000C000B7010008B7010008B7010008B701000830
:1000D000B701000809620008216200086562000893
:1000E000B7010008B7010008B7010008DFF810D019
:1000F00000F0CAFE00480047DD800008AFF3008032
:10010000382E0020224B19680868B0E8F00F80F301
:100110000988BFF36F8F4FF0000080F311884EF015
:100120000D0E70470000000006480068006880F36C
:10013000088862B661B6BFF34F8FBFF36F8F00DFE1
:1001400000BF00BF08ED00E0EFF30980BFF36F8F41
:100150000F4B1A6820E9F00F106008B54FF05000FF
:1001600080F31188BFF34F8FBFF36F8F0AF064FEE7
:100170004FF0000080F31188BDE808401968086856
:10018000B0E8F00F80F30988BFF36F8F704700BFAE
:10019000B40B0020EFF3058070470000064880474D
:1001A00006480047FEE7FEE7FEE7FEE7FEE7FEE75C
:1001B000FEE7FEE7FEE7FEE7915A0008ED000008C3
:1001C000202A04DB203A21FA02F00021704721FAAC
:1001D00002F3D040C2F12002914008431946704713
:1001E000A0F14101192900D82030704740EA0103ED
:1001F0009B0703D009E008C9121F08C0042AFAD2DD
:1002000003E011F8013B00F8013B521EF9D27047A0
:10021000D2B201E000F8012B491EFBD27047002248
:10022000F6E710B513460A4604461946FFF7F0FFF5
:10023000204610BD30B505462A460B4612F8010B84
:1002400013F8014B08B1A042F8D01CB1002802D02D
:100250006D1CF1E7284630BD421C10F8011B002937
:10026000FBD1801A704710B5002200E0521C835C5D
:100270008C5CA34201D1002BF8D1D8B2E1B2401A74
:1002800010BD30B504460020034600E05B1C9342DD
:1002900003D2E05CCD5C401BF8D030BD034611F8C2
:1002A000012B00F8012B002AF9D11846704730B510
:1002B00005460020034600E05B1C934205D2EC5C3F
:1002C000C85C201A01D1002CF6D130BD2DE9FF4FBA
:1002D000087883B09946FF2805D0491C2D2804D002
:1002E0000024002008E000200BE00124F9E700EBE7
:1002F000800003EB4000491C0B78FF2BF7D104B1C1
:10030000404200230293147819461D462D2C01D03B
:100310002B2C04D1521C2D2C13D000240294AA465D
:100320001478FF2C0FD00A25A3FB057801FB05816B
:100330004FF0000C03FB0C11521CE3194AEB0101B6
:10034000EEE70124EAE7814453EA010002D019F5FF
:10035000C87F06DA03980021C0E9001107B0BDE8A4
:10036000F08F0025AE4E2F46DFF8B882184600F019
:1003700067FDCDE90001B9F1000002DAC9F100041E
:1003800000E004460023A74A1AEB030B42EB045A91
:1003900012E0E00707D02A4633463846414600F0CF
:1003A0005CFA074688462A4633461046194600F04E
:1003B00054FA05460E466410002CEAD1DDE900012E
:1003C000B9F1000F5A46534606DA00F0B8FA3A4639
:1003D000434600F0B4FA05E000F03FFA3A464346DF
:1003E00000F03BFA029A0AB181F00041039AC2E997
:1003F0000001B3E72DE9FF4F1F468DB0D7E9014655
:100400004FF0FF382E2045464FF000090B90B96998
:100410006D1C0E988847396A824688470028F6D1B5
:10042000BAF1FF3F0AD024F4D064002E11DDBAF1F6
:100430002B0F08D0BAF12D0F0BD102E0404611B0BE
:100440008DE744F48064B9696D1C0E988847824634
:10045000761E6946600501D52D2000E02B208DF821
:10046000000001F1010B0DF1200809E0B9696D1CD4
:100470000E98884782460F9844F40074761E0560F3
:10048000002E02DDBAF1300FF0D00B998A453ED133
:1004900044F0800406E00F99681CA9F1010944F4B6
:1004A00000740860B9696D1C761E0E9888478246F4
:1004B0003028F0D02BE00B998A4505D1200603D4D3
:1004C00044F08004761E18E0504606F0C5F908B3E3
:1004D0000DF11301761E44F400748B4508D2AAF185
:1004E00030000BF8010B200607D5A9F1010003E04D
:1004F000200602D409F101008146A00502D50F991A
:10050000681C0860B9696D1C0E9888478246002EE9
:10051000D1DC53E0002E51DDBAF1650F02D0BAF103
:10052000450F4BD1A00549D5B9696D1C24F4407421
:10053000761E0E9888478246002E0CDD2B2804D0AC
:10054000BAF12D0F07D144F48074B9696D1C0E986F
:1005500088478246761EE00501D52D2100E02B213B
:1005600008F8011BCDF82C8021E00DF12901761E41
:1005700044F4007488450CD2AAF1300010F0FF005A
:1005800088F8000002D10B99884509D908F10108C3
:1005900006E0E00501D5244801E042F20F708146F3
:1005A000B9696D1C0E98884782460F980560002E29
:1005B00004DD504606F050F90028D6D1F9690E98AE
:1005C0008847FF208BF8000088F800000020069084
:1005D00007904B466A4608A906A8FFF777FEA005D4
:1005E00002D46FF001002AE714F0240F0AD0E007CC
:1005F00014D1DDE906123868031D3B600068C0E9CC
:1006000000120BE0DDE9060100F094FA0146E00774
:1006100004D13868021D3A600068016028460EE780
:10062000000014400000F03FF1D8FFFF80EA010213
:1006300010B502F00043400022D04A001FD0010E46
:1006400001EB1261C0F35600C2F3560240F4000001
:1006500042F40002A0FB022000047F39140400D001
:10066000401C50EA124001D44000491EC2B20C06A0
:1006700004EBD010401C4008802A02D003E0002088
:1006800010BD20F00100002900DA0020184310BD41
:1006900030B480EA010202F0004530F0004221F05F
:1006A000004013D090B1C30DD40DC2F31601C0F3B6
:1006B0001600E41A41F4000140F400027D34914236
:1006C00001D3641C00E04900002C02DA30BC002099
:1006D00070474FF400000023914201D3891A03436D
:1006E00040084FEA4101F7D151B1914202D14FF098
:1006F000004105E002D24FF0010101E06FF001017D
:1007000003EBC450284430BC00F006BB2DE9FE4F7B
:10071000804681EA0300C00F0C46009021F00041A2
:1007200023F00045B8EB0200A94105D2404621461E
:1007300090461C460B46024623F00040104347D02B
:10074000270DC7F30A00C3F30A510290401A019023
:1007500040286BDAC3F3130040F4801B00989246E4
:1007600020B10023D2EB030A63EB0B0B019859462F
:10077000C0F14002504600F040FA06460D46504691
:100780005946019A00F048FA10EB08006141002434
:1007900087EA115284EAE7731A4340D0009A62B3A1
:1007A000019A012A4FEA075215DC001B61EB020196
:1007B0004FF0004202EA0752CDE90042001C41F529
:1007C000801132462B4600F0EDFA03B0BDE8F08F01
:1007D00040462146F9E7001B61EB0201001C41F590
:1007E000801300185B412018A2F5001747EB0301A6
:1007F00040EAD570B6196D4111E06D084FEA360632
:1008000045EAC0754FEA0752001B61EB0201001C6C
:1008100041F5801149084FEA300000195141324634
:100820002B4603B0BDE8F04F00F0ADBA00980122AE
:1008300040000023D0EB020263EBE07300982146F6
:100840004FEAE074B8EB000061EB0401E9E783F0E4
:1008500000435BE781F0004158E72DE9FE4F81EA54
:10086000030404F0004421F0004100944FF0000B19
:1008700023F0004350EA01045ED052EA03045BD047
:10088000C3F30A54C1F30A552C44A4F2F33401947F
:10089000A0FB0254C1F3130141F48011C3F313030D
:1008A00043F4801301FB024400FB034E840A970AC1
:1008B00044EA815447EA8357A4FB076802958D0AEE
:1008C00005FB07854FEA932C04FB0C542705029D7A
:1008D0004FEA065847EA1637B5EB08056EEB070CEA
:1008E000870E920E47EA811742EA8312A7FB0201A4
:1008F000B6EB0B0164EB00042B0D43EA0C335E18DE
:1009000044EB1C50DA465146E7FB0201C5F31304E1
:100910004FEA0B3343EA14534FEA0432019C43EA93
:100920000603A4F10C040294009CCDE900B400F08D
:1009300039FA03B0BDE8F08F00200146F9E72DE950
:10094000F04D81EA030404F0004B21F00045144609
:100950004FF0000A23F0004150EA050220D054EA8B
:1009600001021DD0C5F30A570246C5F31303C1F3B4
:100970001300C1F30A5640F4801543F48013A7EB2B
:100980000608101BD64608F2FD3873EB050002D3AB
:1009900008F1010801E092185B41B8F1000F03DA99
:1009A00000200146BDE8F08D00204FF4801106467E
:1009B00084460EE0171B73EB050705D3121B63EB90
:1009C000050306434CEA010C49084FEA300092182F
:1009D0005B4150EA0107EDD152EA030012D082EAEE
:1009E000040083EA0501084305D0101BAB4106D281
:1009F0000122002306E000224FF0004302E06FF0E6
:100A0000010253101AEB06004CEB085110EB0A00E0
:100A100041EB0B01BDE8F04D00F0B5B970B521F028
:100A2000004303430CD0C1F30A550024D5EB040561
:100A300064EB0403D617AD1AB34102DB0020014674
:100A400070BD201841EB025170BD96230022114663
:100A500000F06BB90EB540F2334102910021CDE9AF
:100A600000110A460B4600F09DF903B000BD20F0CE
:100A70000040C10DC0F3160040F400007F2901DAE8
:100A800000207047962903DCC1F19601C8407047E9
:100A900096398840704770B5C1F30A5201F000459D
:100AA0000024C1F3130140F2FF3341F480119A4254
:100AB00001DA002070BD40F233439A42A2F2334281
:100AC00003DC5242FFF77CFB00E090402C43F1D066
:100AD000404270BD30B5041E71F1000404DB4FF0DC
:100AE0000044404264EB0101141E73F1000405DB75
:100AF0001C464FF00043524263EB04038B4208BF95
:100B0000824230BD30B5041E71F1000404DB4FF0A9
:100B10000044404264EB0101141E73F1000405DB44
:100B20001C464FF00043524263EB0403994208BF56
:100B3000904230BD01F0004330B421F0004150EA52
:100B4000010206D00A0DA2F56072C1F31301002A5A
:100B500002DC30BC00207047440F44EAC104C100ED
:100B6000E01830BC00EBC25000F0D6B830B50B46F0
:100B7000014600202022012409E021FA02F59D42CD
:100B800005D303FA02F5491B04FA02F52844151EA1
:100B9000A2F10102F1DC30BD2DE9F05F0546002035
:100BA00092469B4688460646814640241BE02846DE
:100BB000414647462246FFF703FB53465A46C01AB2
:100BC000914110D311461846224600F016F82D1A0E
:100BD00067EB01084F4622460120002100F00DF886
:100BE00017EB00094E41201EA4F10104DFDC48464A
:100BF00031462A464346BDE8F09F202A04DB203ACE
:100C000000FA02F1002070479140C2F1200320FA5F
:100C100003F3194390407047202A06DBCB17203A94
:100C200041FA02F043EAE07306E041FA02F3D040F1
:100C3000C2F120029140084319467047426842B110
:100C4000016811F8013B23B1521EC0E90012184699
:100C500070470121C160881E704742685AB1C3685D
:100C6000016843B983688B4205D0491E521CC0E914
:100C70000012002070474FF0FF3070470FB4002380
:100C800000B589B00CA900910B996FF00042CB60C0
:100C90001E4B06931E4B07930423CDE901321D4AD8
:100CA000089202466B460020FFF7A4FB09B05DF8EE
:100CB00014FB70B586B006464FF0FF300091CDE9C9
:100CC0000101002015460C4604903246694604A8EE
:100CD000FFF7D4FF02460498211825B108B1084651
:100CE00000E020462860049800280DD0002A02DD8C
:100CF0000098884208D0081B0094CDE901043246D0
:100D0000694604A8FFF7BAFF06B070BD3D0C0008A5
:100D10005B0C0008AD0E00080029A8BF7047401CFE
:100D2000490008BF20F00100704710B4B0FA80FC01
:100D300000FA0CF050EA010404BF10BC704749B13E
:100D4000CCF1200421FA04F411FA0CF118BF0121AE
:100D500021430843A3EB0C01CB1D4FEA00614FEA8E
:100D6000102042BF002010BC704700EBC35010445D
:100D70000029A4BF10BC7047401C490008BF20F0E8
:100D8000010010BC704710B5141E73F1000408DA9E
:100D9000401C41F1000192185B411A4301D120F03F
:100DA000010010BD2DE9F04D92469B4611B1B1FAFC
:100DB00081F202E0B0FA80F220329046FFF71DFF88
:100DC00004460F4640EA0A0041EA0B0153465A46E0
:100DD000084313D0114653EA010019D0C8F140026C
:100DE0005046FFF7EDF905460E4650465946424635
:100DF000FFF703FF084305D0012004E020463946F1
:100E0000BDE8F08D0020054346EAE0762C433743E9
:100E10000A986305E40AA0EB08000022FD0A44EAF0
:100E200047540A3002D500200146E9E701051019B0
:100E30006941DDE9084500196941BDE8F04DA2E7C7
:100E40000EB540F2334202920022CDE90022134651
:100E5000FFF7A8FF03B000BDC1F30A52C1F31301AD
:100E600040F2FF3341F480119A4202DA0020014639
:100E7000704740F233439A42A2F2334202DC5242BC
:100E8000FFF79EB9FFF7B9BE064C074D06E0E068D4
:100E900040F0010394E8070098471034AC42F6D3C1
:100EA000FFF728F9B4BF0008D4BF0008C0B24FF460
:100EB000F05100F001B800007F2801D9002208E0BD
:100EC000064A02EB5002C007127800D1120902F064
:100ED0000F02012090400840704700005ABF0008F0
:100EE00070B58C1810F8015B15F0070301D110F8EC
:100EF000013B2A1106D110F8012B03E010F8016B19
:100F000001F8016B5B1EF9D12B0705D40023521E9B
:100F10000DD401F8013BFAE710F8013BCB1A921C03
:100F200003E013F8015B01F8015B521EF9D5A14201
:100F3000D8D3002070BD000070B5044600688168F9
:100F4000C943C90717D1816821F00101816001F00F
:100F500021FC05460AE000BF01F01CFC401B0228F2
:100F600004D920688068C043C00706D02068806824
:100F7000C043C007F0D0002070BDA06A40F0100050
:100F8000A062E06A40F00100E062012070BD000054
:100F9000F8B500260446009600688168C943C90771
:100FA0002DD0816841F00101816016481649006822
:100FB000B0FBF1F000E0401E00900028FBD101F0F2
:100FC000E9FB054616E000BF01F0E4FB401B0228E8
:100FD00010D920688068C043C0070BD0A06A40F0D9
:100FE0001000A062E06A40F00100E06284F8246032
:100FF0000120F8BD20688068C043C007E4D100200C
:10100000F8BD0000B00B002040420F002DE9FE4F5C
:10101000012407270094CDE901476946394800F0CB
:1010200067FB08B100F0AAFA00263546354800F003
:1010300039FD6421334800F097FC18B9314800F0BD
:10104000D5FB06446D1CEDB20A2DEFD30A25B6FB85
:10105000F5F0FFF7FFFCDFF8B0A04FF066394A4625
:101060005346FFF7FAFBDFF8A4B000225B46FFF718
:1010700066FCFFF75FFD2649FFF7D8FAFFF7F7FC9C
:10108000244E6946B08110208DE891001D4800F083
:101090002FFB08B100F072FA00273C464FF47A7833
:1010A000184800F0FFFC4146164800F05DFC18B9F6
:1010B000144800F09BFB0744641CE4B20A2CEFD3F5
:1010C000B7FBF5F0FFF7C6FC4A465346FFF7C5FBF2
:1010D00000225B46FFF733FC0F4A104BFFF7BAFBC9
:1010E0000F4A104BFFF72BFC00220F4BFFF70EFBB4
:1010F000FFF720FD0649FFF799FAFFF7B8FCF081EA
:10110000BDE8FE8F6C12002066660A4000FEAF400C
:101110000000C84290180020E17A14AE47E1F63F83
:1011200022FDF675E09C713F000039401CB5BE20E1
:101130008DF8040008208DF8050000208DF80600C9
:101140004FF6FF700090032301AA7021014801F0BF
:1011500013FD1CBD9C1200201CB5282001F012FAC2
:10116000BE208DF8040008208DF8050000208DF8C1
:1011700006004FF6FF700090032301AA7021054876
:1011800001F0FAFC00F0A2F8000701D4FFF7CEFF4F
:101190001CBD00009C12002070B500F019F80A4C2C
:1011A000084E31466068FFF741FAFFF760FC074DD3
:1011B000314668802068FFF739FAFFF758FCA880AD
:1011C00070BD00000000C842000000209018002000
:1011D00070B586B000208DF800008DF800008DF805
:1011E00000008DF800008DF800008DF80000AC21A3
:1011F0008DF80C1033218DF80D1004468DF80E007B
:101200004FF6FF75032303AA70212B48009501F0C8
:10121000B3FC502001F0B6F907E0012001F0B2F96B
:101220002046641CA4B2642803D200F04FF80006E4
:10123000F3D4062301AA70211F48009501F074FB26
:101240009DF805009DF806109DF8074041EA002131
:1012500044EA01200009FFF7FDFB0022174BFFF7CE
:10126000FCFA6FF009063246FFF7D8FB3246FFF76B
:10127000D5FBFFF75FFC124D28609DF808109DF824
:10128000090041EA042140EA0120C0F31300FFF7FE
:10129000E1FB00220B4BFFF7E0FA3246FFF7BEFB03
:1012A0003246FFF7BBFB0022074BFFF7D0FAFFF7F0
:1012B00041FC686006B070BD9C12002000005940DF
:1012C0000000002000006940000049401CB54FF6B6
:1012D000FF700090012301AA7021034801F024FB54
:1012E0009DF804001CBD00009C120020064B4FF42A
:1012F0000051012805D0002805D10022184601F030
:1013000043BA0122FAE7704700100140FEE70000EF
:101310000B4802F07BFB00F019F80A4801780A48F4
:1013200009F0BAF90021084809F05CFA05210648DD
:1013300009F058FA4FF47A74204606F0D4FFFBE720
:10134000F01200201D0000205C09002000B58BB0C9
:1013500000200121CDE90601059000900190029046
:10136000039004900E20CDE9081069460A4800F069
:1013700073FC08B100F002F9074800F051FF08B112
:1013800000F0FCF80221044800F0ECFB08B100F08A
:10139000F5F80BB0002000BD280C002030B4D0F8C8
:1013A0009C20D0F8A0404FF0FF3352F8212024F8C1
:1013B0001130C2F307420121831883F8B010D0F82E
:1013C000AC3030BC114618472DE9F04F9946DDE9A5
:1013D0000A5A4FF0FF3BDDF824C041E0AB1A5BB284
:1013E0000C78002B03DD00BF04FA03F403E0C3F123
:1013F000000324FA03F4E6B202DDC5F1080301E0BC
:10140000C2F10803DCB2844200D9044605EB0408AB
:10141000FF2707FA08F3C5F10805EF403B439CF8A6
:1014200000509E431D4035432244D2B28CF80050F8
:10143000072A07D90022B9F1000F01D05B4600E06E
:101440000123194408F0FF05072D07D90025BAF13B
:10145000000F01D05B4600E001239C44001BC0B29A
:101460000028BBD1BDE8F08F014800F07BBF000031
:10147000E4160020014800F075BF0000A01600200F
:1014800030B590F840500124AC40C56B6C600468E6
:1014900063604368102B036803D099600068C260E2
:1014A00030BD9A600068C16030BD7047411C0CD0EF
:1014B0000749B1F90020904201D1521E0A80054A25
:1014C00000EB4000002102F830104FF0FF30704771
:1014D0009C0B0020881A002010B50C46034604F02F
:1014E00078F910B14FF0FF3010BDD3F80021521C35
:1014F000D01702EB106020F0FF00101AC3F80001B3
:10150000185C2070002010BD10B50C46034604F096
:1015100068F928B109A004F0DBFF4FF0FF3010BDDF
:10152000D3F80421521CD01702EB106020F0FF000A
:10153000101AC3F804011C54002010BD71756575A4
:10154000652069732066756C6C0A00002DE9F04116
:1015500016460D46074600240CE029783846FFF76A
:10156000D3FF002803DA4FF0FF30BDE8F081641CA0
:10157000A4B26D1CB442F0D30020F6E772B6FEE7C9
:1015800008B506480268001F0368001F0068009045
:1015900003A1074804F0ACFF054808BDF0F7FF1FA2
:1015A000253038582530385825303858000000008C
:1015B000580D002070B50546D0F83801008818B3E2
:1015C00000242E1996F8B0000F2818D0286800784B
:1015D000A04214D096F8400140B9D5F8342112B198
:1015E000214628469047012086F8B00096F8400131
:1015F0002146401E86F84001284606F0EDFD641C99
:10160000E4B2802CDDD370BDB5F93001FFF74EFF99
:10161000A5F8300170BD0000F8B50025044600951E
:1016200090F8240001280BD0012084F824002046E3
:10163000FFF782FC2046FFF7ABFC060002D050E02B
:101640000220F8BDA06A20F4885040F00200A06299
:10165000022001F0DFFD25490968B1FBF0F04000F0
:1016600000E0401E00900028FBD12068816841F016
:101670000801816001F08EF8074608E001F08AF861
:10168000C01B0A2803D920688068000715D4206889
:1016900080680007F2D42068816841F0040181600D
:1016A00001F078F8074612E001F074F8C01B0A2830
:1016B0000DD920688068400709D5A06A20F0020093
:1016C00040F01000A06284F824500120F8BD20688A
:1016D00080684007E8D4A06A20F0020040F00100D2
:1016E000A06284F824503046F8BD0000B00B002002
:1016F000F8B50024009490F824202546012A12D041
:10170000012280F824204A681F23072A0DD2066888
:10171000776B521E02EB820293409F430B6893400B
:101720001F43776319E00220F8BD06680D2A0AD22C
:10173000376BD21F02EB820293409F430B689340AA
:101740001F43376309E0F76A0D3A02EB82029340C8
:101750009F430B6893401F43F7620A68072306689C
:101760000A2A0AD3F7680A3A02EB420293409F43DF
:101770008B6893401F43F76008E0376902EB420231
:1017800093409F438B6893401F4337610A68102A38
:1017900001D0112A20D1124B02689A4217D19368C6
:1017A0001B0219D4936843F400039360096810295D
:1017B00012D10C490C4A0968B1FBF2F101EB81012D
:1017C000490000E0491E00910029FBD104E0816A34
:1017D00041F020018162012480F824502046F8BDA8
:1017E00000240140B00B002040420F000068C06C94
:1017F000704700002DE9F0414FF0000704003D461E
:101800007ED0A06A002628B9E66284F824602046CB
:1018100000F07EF82046FFF78FFBA16AC90600D4CE
:1018200020B1A06A40F01000A06269E0A16A21F432
:10183000885141F00201A1626268E169237B0A4399
:1018400047EA43010A43A1684FF48077B94209D0BF
:10185000012907D05FF0000194F814C0BCF1010F1A
:1018600002D00AE03946F7E7F3B1A36A43F0200358
:10187000A362E36A43F00103E3622368D3F804C080
:101880002CF4694C4CEA010CC3F804C021688B6845
:10189000DFF870C003EA0C0313438B60A168B94200
:1018A0000BD0012909D00CE0DFF85CC0A3690CEB78
:1018B00043330B4343F40061DFE7218A0D05A5F5AF
:1018C00080152168CB6A23F470032B43CB62216817
:1018D00089680E4B1940914208D1E662A16A21F055
:1018E000020141F00101A162BDE8F081A06A20F08F
:1018F000020040F01000A062E06A40F00100E062E7
:101900000120F1E7FDF7E1FF00E0FFFFFE0E1FFF02
:1019100000B585B00021009101910291039100680A
:101920000E49884218D10E48816941F400718161E5
:10193000816901F400710491816941F004018161C0
:101940008069694600F004000490022000900320A2
:101950000190044800F028FE05B000BD00240140BD
:1019600000100240000801402DE9F84300270D4611
:101970000446009700F00EFF804620688168C90584
:1019800008D5A06A40F02000A06284F824700120ED
:10199000BDE8F8834168C90503D4C06A10F4700F2C
:1019A0002AD0022001F036FC3B490968B1FBF0F671
:1019B0002068036939490B424FEA61014FEAA112DD
:1019C0001FD1C3684FEA611C13EA0C0F19D10369D8
:1019D0000B4225D1C068104222D1142023E0681C9C
:1019E0000AD02DB100F0D6FEA0EB0800A84203D922
:1019F00020680068800725D5206800688007EED53C
:101A00002DE003690B4202D1C168114206D0026980
:101A100023490A4206D1C068084203D1542002E09B
:101A2000292000E0FC204643009816E0681C11D0F5
:101A30002DB100F0AFFEA0EB0800A8420AD9009833
:101A4000B04207D2A06A40F00400A06284F824707B
:101A500003209DE70098401C0090B042E6D3216827
:101A60006FF012000860A06A40F40070A062206865
:101A70008068C0F3424007280CD1207B50B9A06A8F
:101A800020F48070A062A06AC00403D4A06A40F071
:101A90000100A06200207BE7B00B002024499224C3
:101AA0004992240070B5044690F8240001280DD016
:101AB000012084F824002046FFF76AFA02004FF064
:101AC000000005D084F82400104670BD022070BDCF
:101AD000A16A40F20123994341F48071A1621F4D34
:101AE00023681F49AB4218D10E6816F4702F14D02A
:101AF000A66A46F48016A6620E68760505D5A66A23
:101B000026F4005646F48056A662A66AF6040AD564
:101B1000E66A26F00606E66206E0A66A26F4801665
:101B2000A6625E68E9E7E06284F824006FF00200D4
:101B3000186020688368C3F34243072B05D1A8428D
:101B400008D1096811F4702F04D0816841F4801124
:101B50008160B9E7816841F4A001F9E700280140FC
:101B60000424014090F82020012A07D0022A05D041
:101B7000416A41F480214162012070470068426956
:101B80000A43426100207047F0B590F82050046885
:101B9000A468012D05D0022D03D0416A41F48021B3
:101BA00057E014F0406F01D1E5004FD5C4F3016454
:101BB0000125A5401D608D684FF4C0739DB1CE68AE
:101BC00035434E6845EAC605066803EB0417F55130
:101BD0004FF4C275076805EB04150E697E51097D47
:101BE000012905D009E00E88CD6845EA4655EBE7A6
:101BF00001684E5946F480764E511179D57956795F
:101C000041EA056195792D0445EA062529434FF4FB
:101C1000C676056806EB0416A9511178D57841EA15
:101C20000561957852782D0445EA022211434FF45C
:101C3000C475026805EB04155151006803EB0411EB
:101C4000425842F0010242500020F0BD416A41F486
:101C5000001141620120F0BD10B590F820300268FB
:101C6000012B07D0022B05D0416A41F4802141624B
:101C7000012010BDD2F8000240F00100C2F80002BD
:101C8000087D00F01F0301209840D2F81C328343E6
:101C9000C2F81C32CB69B3B9D2F80C328343C2F814
:101CA0000C328C894B6864F31F434C6902EBC4040B
:101CB000C4F840320C890B6864F31F434C6902EB93
:101CC000C404C4F84432CB69012B16D1D2F80C32CB
:101CD0000343C2F80C320C884B6864F31F434C6911
:101CE00002EBC404C4F840320C89CB6864F31F4390
:101CF0004C6902EBC404C4F844328B69002BD2F85F
:101D000004320FD053EA0003C2F804320B69002BEF
:101D1000D2F8143208D00343C2F81432096A0129F8
:101D200004D008E08343EFE78343F5E7D2F81C12C1
:101D30000143C2F81C12D2F8000220F00100C2F8E0
:101D40000002002010BD704770B590F82040012CB3
:101D500005D0022C03D0416A41F4802128E00468B8
:101D600009B32469A40720D04FF4D874056804EBA4
:101D700001142D5915F00405956005682D591AD0E8
:101D8000ED08556005682C5904F00204D4604FF446
:101D9000DA74056804EB01142E5906F00F06082EBC
:101DA0000CD308250DE0E468DCE7416A41F400113A
:101DB0004162012070BD6D0D1560E3E72D5905F0FE
:101DC0000F05156105682D59C5F30725956105684F
:101DD0002C59240C54614FF4DC72046802EB01129C
:101DE000A4581C700468A458240A5C700468A458A1
:101DF000240C9C700468A258120EDA704FF4DE7244
:101E0000046802EB0112A4581C710468A458240A47
:101E10005C710468A458240C9C710468A258120ECA
:101E2000DA71006829B1016941F0200101610020E7
:101E300070BDC16841F02001C160F8E72DE9F05F95
:101E40000546006800244669D0F804908768D0F8F9
:101E50000CB0D0F810A0D0F81880F10748D0F907DE
:101E600014D001218160B80703D5284600F005FA97
:101E70000CE0780702D54FF4006407E0380702D57C
:101E80004FF4805402E0284600F0F6F9F80516D524
:101E900029684FF480708860B80503D5284600F0A3
:101EA000EEF90CE0780502D544F4005407E038055B
:101EB00002D544F4804402E0284600F0DFF9F8033C
:101EC00016D529684FF480308860B80303D52846BA
:101ED00000F0D7F90CE0780302D544F4004407E0A1
:101EE000380302D544F4803402E0284600F0C8F9F3
:101EF000300707D55FEACB6004D52968102044F489
:101F00000074C86070074FF0080707D55FEA0B70D0
:101F100004D52868C760284600F05AF9B00706D5EE
:101F20002868C068800702D0284600F053F9700680
:101F300007D55FEACA6004D52968102044F480649C
:101F40000861B00607D55FEA0A7004D52868076102
:101F5000284600F061F9F00606D528680069800778
:101F600002D0284600F059F9B00308D55FEAC960ED
:101F700005D5296810204860284600F04FF9F00385
:101F800007D55FEA097004D528684760284600F045
:101F900079F9300446D55FEA497040D5F00504D59B
:101FA0005FEAC87001D044F00104B00504D55FEACF
:101FB000887001D544F00204700504D55FEA4870CA
:101FC00001D544F00404300529D518F0700F26D04F
:101FD00008F07000402815D006DC102809D0202811
:101FE0000AD0302816D10AE050280ED0602811D12E
:101FF0000EE044F008040DE044F010040AE044F060
:10200000200407E044F0400404E044F0800401E0D0
:1020100044F480742868816921F070018161296825
:1020200004204860002C05D0686A20436862284676
:10203000FFF789FEBDE8F09F70B5040003D094F867
:10204000200010B104E0012070BD204600F082F8AD
:102050002068016841F00101016000F09BFB05462A
:10206000052604E000F096FB401B0A2811D82068E2
:102070004068C007F6D02068016821F002010160C5
:1020800000F088FB05460BE000F084FB401B0A28AB
:1020900006D9606A40F40030606284F82060D2E7BC
:1020A000206840688007EFD4207E012820680168FE
:1020B0003DD021F080010160607E01282068016828
:1020C00038D021F040010160A07E0128206801681D
:1020D00033D021F020010160E07E012820680168F2
:1020E0002ED041F010010160207F01282068016896
:1020F00029D021F008010160607F01282068016873
:1021000024D021F004010160D4E902010843D4E99C
:102110000412114308436168491E08432168C861DD
:1021200000206062012084F82000002070BD41F092
:102130008001C0E741F04001C5E741F02001CAE756
:1021400021F01001CFE741F00801D4E741F004018C
:10215000D9E7000010B586B00021009101910291ED
:1021600003910068174988422AD11748C16941F094
:102170000071C161C16901F000710491816941F090
:10218000040181618069114C00F0040004904FF457
:10219000006000906946204600F006FAA014009006
:1021A00002200190032003906946204600F0FCF9CC
:1021B00000221146142000F0FBFF142000F0EAFF7B
:1021C00006B010BD0064004000100240000801404D
:1021D000704700000EB50D4A00210D4801ABFFF716
:1021E000B3FD0A480188ADF80010C16802290BD080
:1021F0005FF000018DF80210007C8DF80300694645
:10220000044805F00CF90EBD0121F3E7D0180020B9
:10221000280C00205C0900207047704770470000C0
:1022200070B5044690F82000012804D0606A40F49C
:102230000020606218E0022084F820002068016815
:1022400021F00101016000F0A5FA05460EE000BF93
:1022500000F0A0FA401B0A2808D9606A40F4003058
:102260006062052084F82000012070BD206840686D
:10227000C007EDD1606270BD70477047704770470E
:1022800070477047704710B590F82110002202295E
:1022900005D00421816380F82020012010BD016851
:1022A0000B6823F00E030B6001680B6823F0010339
:1022B0000B6090F84030C46B012101FA03F36360B6
:1022C00080F8211080F82020104610BD10B590F83D
:1022D00021100024022903D00421816301243DE060
:1022E00001680A6822F00E020A6001680A6822F09A
:1022F00001020A601A4A0168914201D1012121E0DC
:10230000174A1432914201D110211BE0144A28329D
:10231000914201D1891515E0114A3C32914201D117
:1023200089140FE00E4A5032914202D14FF48031AD
:1023300008E00B4A6432914202D14FF4801101E06F
:102340004FF08071064A083A5160012180F821104F
:10235000002180F82010416B01B18847204610BD54
:10236000080002402DE9F05FC16B0C6801680B6842
:10237000D0F840C0042202FA0CF2494DDFF824A143
:10238000494E4A4FDFF828B1DFF828E122422CD02D
:102390005A072AD50A68920603D40A6822F0040272
:1023A0000A600168A94201D1042219E0514501D116
:1023B000402215E0B14202D14FF4806210E0B942F0
:1023C00002D14FF480420BE0594502D14FF48022F4
:1023D00006E0714502D14FF4800201E04FF08062C7
:1023E0002F4908394A60C16A3BE04FF0020808FAF9
:1023F0000CF818EA040F4FF000094FF0010235D035
:102400005FEA837832D50B689B0605D40B6823F00E
:102410000A030B6080F821200168A94201D1022241
:1024200019E0514501D1202215E0B14202D14FF40B
:10243000007210E0B94202D14FF400520BE059454E
:1024400002D14FF4003206E0714502D14FF4001280
:1024500001E04FF00072124908394A6080F820907C
:10246000816A00291AD0BDE8F05F0847082505FAFF
:102470000CF5254212D01B0710D50B6823F00E0374
:102480000B6090F84010C36B02FA01F1596082634F
:1024900080F8212080F82090016BE2E7BDE8F09FF2
:1024A000080002401C00024030000240440002408C
:1024B000580002406C00024030B528B308C81349E8
:1024C00014221944B1FBF2F18900C1631049816300
:1024D000022141771A6843F6F0718A43D0E900146B
:1024E0002143D0E902452C43214304692143446937
:1024F0002143846921431143196000214163012272
:1025000042770177084630BD012030BDF8FFFDBF9E
:102510000000024070B5044690F820000025012814
:102520000CD0012084F8200094F821600020012EB6
:1025300006D084F820000225284670BD022070BD18
:10254000022684F82160A0632068066826F0010650
:1025500006602046FEF794FFE06A002820680168C4
:1025600002D041F00E0106E021F004010160206874
:10257000016841F00A0101602068016841F0010131
:102580000160D9E770B5044600F004F90546601C07
:1025900002D004480078044400F0FCF8401BA0423C
:1025A000FAD370BDA40B00202DE9F84FDFF8B891E5
:1025B0000024A9F1040B23460F2709F1040AABF10B
:1025C000040EC9E00125A5402A40AA427DD1674EEC
:1025D000D1F804C0ACEB0608B44532D014DCBCF131
:1025E000030F3AD009DCBCF1000F2AD0BCF1010F77
:1025F0001CD0BCF1020F31D11DE0BCF1110F17D07E
:10260000BCF1120F2AD119E0B8F5881F19D006DCE9
:10261000B8F5803F15D0B8F5801F1FD111E0B8F58F
:10262000001F0ED0B8F5041F18D10AE0CB6815E0E2
:10263000CB681B1D12E0CB6808330FE0CB680C336E
:102640000CE08B682BB1012B4FF0080303D04561E0
:1026500004E0042302E0056100E00023FF2A01D822
:10266000064601E000F104064FEA840501D9A5F110
:102670002005D6F8008007FA05FC28EA0C0803FAC2
:1026800005F548EA0508C6F800804D68ED0062D5FA
:10269000374DAE6946F00106AE61AD6924F0030620
:1026A00005F001050095334D06EB050CDCF80850EC
:1026B000A607360F07FA06F825EA0805DFF8B880FE
:1026C000404503D14FF0000817E044E0DFF8AC804C
:1026D000404502D14FF001080FE0DFF8A4804045EB
:1026E00002D14FF0020808E0DFF89880404502D19F
:1026F0004FF0030801E04FF0040808FA06F848EA32
:102700000508CCF808804D68D9F80060ED024D4608
:1027100001D5164300E096432E604D68DAF800605C
:10272000AD02554601D5164300E096432E604D6834
:10273000DBF80060AD035D4601D5164300E096432B
:102740002E604D68DEF80060ED03754601D5164336
:1027500000E096432E60641C0D682A46E5407FF435
:1027600031AFBDE8F88F00000804014000001110EF
:10277000001002400000014000080140000C014030
:1027800000100140001401400AB1016170470904C2
:10279000FBE700000148806870470000A40B0020A0
:1027A00070B5040025D094F83D00002520B984F8C8
:1027B0003C50204600F03CFC242084F83D0020687A
:1027C000016821F0010101602068016841F40041C5
:1027D00001602068016821F40041016000F098FE6A
:1027E0004D4A6168914201D84C4900E04C49884209
:1027F00001D2012070BD4B492368B0FBF1F15E6846
:1028000026F03F060E435E606368934206D94FF49C
:10281000967359434FF47A73B1FBF3F12368491C63
:102820001E6A26F03F06314319626168914210D852
:102830004900401EB0FBF1F2521CC2F30B02042A05
:1028400001D2042022E0B0FBF1F0401CC0F30B00E9
:102850001CE0A268F2B301EBC10303EB0116431EB7
:10286000B3FBF6F35B1C43F480431B0549D092B3E2
:1028700001EBC10202EB0111401EB0FBF1F0401C64
:10288000C0F30B0040F4804040F400402168CA6966
:102890004CF6FF739A431043C861D4E90710014313
:1028A0002068026822F0C00211430160D4E90301EC
:1028B00001432068826848F2FF339A4311438160E4
:1028C000D4E9050108432168CA6822F0FF021043D9
:1028D000C86001E00EE016E02068016841F00101E7
:1028E00001602564202084F83D00256384F83E5073
:1028F000002070BD01EB4106431EB3FBF6F35B1CE9
:10290000B3E70120C2E701EB4101401EB0FBF1F04B
:10291000401CC0F30B00B7E7A086010080841E00B6
:1029200000093D0040420F002DE9F84F0025DDF879
:102930002890984617468A4604460095FFF72AFFD6
:10294000064694F83D0020287AD1192301228649B1
:102950002046009601F000FF0028F5D194F83C00D5
:1029600001286DD0012084F83C0020680168C90767
:1029700003D1016841F0010101602068016821F480
:1029800000610160222084F83D00102084F83E00A0
:1029900025646762A4F82A80608D20857348E06210
:1029A00033464A465146204601F014FD00287CD1AA
:1029B000208DDFF8BC81202768B1012814D00228BF
:1029C000206801681ED041F480610160206841697F
:1029D00080690090BBE020684169816900910168CD
:1029E00041F400710160B2E02068016821F4806167
:1029F000016072B62068416981690091016841F403
:102A000000710AE041F40061016072B6206841691A
:102A100081690091016821F48061016062B696E0ED
:102A2000032865D801280CD002284B464FF000023D
:102A30004146204600960BD001F08EFEA8BB0CE06C
:102A400090E032464946204601F02CFF68BB71E019
:102A500001F082FE48BB72B633E02068016821F4C1
:102A60008061016072B620680069616A0870606AFE
:102A7000401C6062208D401E2085608D401E608558
:102A80003C4846F2A8110068B0FBF1F0C0EBC00072
:102A900000EB80000090401E009007D02068406945
:102AA000C04340070DD50098F5E727E044F8305FB4
:102AB0006773A573206940F02000206162B625731A
:102AC0001CE02068016841F4007101602068006921
:102AD000616A0870606A401C6062218D491E218510
:102AE000618D491E618562B621680969017025E022
:102AF00032464946204601F0D5FE10B10120BDE81E
:102B0000F88F20680069616A0870606A401C606222
:102B1000208D401E81B22185608D401E6085206819
:102B20004269D243520712D4032903D1016821F428
:102B30008061016020680069616A0870606A401CF9
:102B40006062208D401E2085608D401E6085208D36
:102B500000287FF465AF84F83D7084F83E5084F817
:102B60003C50CCE70220CAE7020010000000FFFF43
:102B700004000100B00B00202DE9F84F1F469046DD
:102B80008A460446DDF82890FFF704FE054694F8CF
:102B90003D0020287FD1192301224049204600957D
:102BA00001F0DAFD002876D194F83C00012872D0BB
:102BB000012084F83C0020680168C90703D101683E
:102BC00041F0010101602068016821F400610160A9
:102BD000212084F83D00102084F83E000026266461
:102BE000C4F824806785608D20852D48E0622B46DF
:102BF0004A465146204601F063FC90B9206841697D
:102C00008069009036E02A464946204601F082FE5F
:102C100050B1206C042804D12068016841F400718F
:102C200001600120BDE8F88F606A216800780861C2
:102C3000606A401C6062618D491E6185218D491E5C
:102C400089B2218522685369DB435B070BD451B1FC
:102C500000781061606A401C6062608D401E608573
:102C6000208D401E20852A464946204601F048FD19
:102C70000028CED1208D0028C5D154F83D0B016825
:102C800041F400710160202004F81E09E6776677A0
:102C90000020C7E7FFE70220C4E7000002001000A1
:102CA0000000FFFF2DE9FF4F83B00025DDE910791B
:102CB0009A4693460446DDF848800095FFF76AFD82
:102CC000064694F83D0020287CD11923012288492A
:102CD0002046009601F040FD0028F5D194F83C0014
:102CE00001286FD0012084F83C0020680168C907E2
:102CF00003D1016841F0010101602068016821F4FD
:102D000000610160222084F83D00402084F83E00EC
:102D100025646762A4F82A90608D20857548E0627A
:102D2000CDE9008653465A462046049901F016FC28
:102D300000287CD1208DDFF8C091202768B10128C0
:102D400014D00228206801681ED041F4806101601F
:102D50002068416980690090BCE020684169816910
:102D60000091016841F400710160B3E020680168DE
:102D700021F48061016072B6206841698169009127
:102D8000016841F400710AE041F40061016072B62B
:102D90002068416981690091016821F480610160C6
:102DA00062B697E0032865D801280CD00228434674
:102DB0004FF000024946204600960BD001F0CCFCB3
:102DC000A8BB0CE091E032464146204601F06AFD86
:102DD00068BB72E001F0C0FC48BB72B633E020680B
:102DE000016821F48061016072B620680069616A3F
:102DF0000870606A401C6062208D401E2085608DD6
:102E0000401E60853D4846F2A8110068B0FBF1F015
:102E1000C0EBC00000EB80000090401E009007D087
:102E200020684069C04340070DD50098F5E727E0CA
:102E300044F8305F6773A573206940F0200020617B
:102E400062B625731CE02068016841F400710160DE
:102E500020680069616A0870606A401C6062218DA8
:102E6000491E2185618D491E618562B62168096907
:102E7000017026E032464146204601F013FD18B1AC
:102E8000012007B0BDE8F08F20680069616A087012
:102E9000606A401C6062208D401E81B22185608D79
:102EA000401E608520684269D243520712D403292C
:102EB00003D1016821F48061016020680069616AC2
:102EC0000870606A401C6062208D401E2085608D05
:102ED000401E6085208D00287FF464AF84F83D702B
:102EE00084F83E5084F83C50CBE70220C9E700004C
:102EF000020010000000FFFF04000100B00B0020E2
:102F00002DE9FF4F83B09A46DDE9119793460446B9
:102F1000DDF84080FFF73EFC054694F83D00202890
:102F20007FD11923012240492046009501F014FC6D
:102F3000002876D194F83C00012872D0012084F852
:102F40003C0020680168C90703D1016841F0010114
:102F500001602068016821F400610160212084F88B
:102F60003D00402084F83E0000262664C4F82480FA
:102F7000A4F82A90608D20852C48E062CDE9007588
:102F800053465A462046049901F066FB70B930E07A
:102F90002A463946204601F0BDFC58B1206C042871
:102FA00004D12068016841F400710160012007B07C
:102FB000BDE8F08F606A216800780861606A401C93
:102FC0006062218D491E89B22185628D521E628503
:102FD00022685369DB435B070BD469B10078106149
:102FE000606A401C6062208D401E2085608D401EFE
:102FF0006085208D0028CBD12A463946204601F035
:103000007FFB0028CAD154F83D0B016841F40071E0
:103010000160202004F81E09E67766770020C6E7E5
:10302000FFE70220C3E70000020010000000FFFFDE
:1030300010B586B0002100910191029103910068C2
:103040000F4988421AD10F4CA06940F00800A061D6
:10305000A069694600F008000490C020009012208A
:103060000190032003900848FFF79EFAE06940F4BE
:103070000010E061E06900F40010049006B010BD9B
:103080000054004000100240000C014002488168DA
:103090000278114481607047A40B0020074810B5E6
:1030A000016841F010010160032000F0A1F80F2039
:1030B00000F006F800F04AF8002010BD00200240A1
:1030C00030B505461C4887B0816941F400618161D3
:1030D000806906A900F40060009001A800F0F8F9EA
:1030E00000F026FA1549164AB0FBF1F11548491EC1
:1030F0000260416040F2E7320021C0E903218160B3
:10310000816100F011FC040012D10E4800F07EFC39
:1031100004000DD1192000F03DF8102D07D2002237
:103120002946192000F044F80748056000E0012412
:1031300007B0204630BD00000010024040420F00A2
:10314000002C014028170020A80B00200F4808B5CC
:10315000816941F001018161816901F00101009102
:10316000C16941F08051C161C069002200F0805006
:1031700000900F21901E00F01BF80548416821F0D7
:10318000E06141F00071416008BD000000100240A4
:1031900000000140002809DB00F01F0201219140DE
:1031A0004009800000F1E020C0F8001170470000E5
:1031B000F0B40E4B1B680C46C3F30223C3F10705A2
:1031C000042D00D90425191D072901D2002300E090
:1031D000DB1E012606FA05F1491E214099409E405A
:1031E000761E16403143F0BC03F096B90CED00E0BA
:1031F000064900F0070208684FF6FF03184040EA4E
:103200000220034A10430860704700000CED00E004
:103210000000FA0510B501460020234C012922D0F8
:10322000022939D010291DD161682268D20119D52F
:103230001E48C1F38342C903805C0AD561681B4AFA
:10324000C1F34041921E515C194AB2FBF1F148436F
:1032500001E0184948436168490203D44000032152
:10326000B0FBF1F010BD226AC2F30121012903D1A4
:10327000920701D5C80310BD022905D1626A9207E1
:1032800002D549F6404010BD0329FCD121688903CD
:10329000F9D54FF2244010BD00F04AF96168C1F33E
:1032A0008131491C4900DBE70010024032BF0008B1
:1032B00000127A0000093D002DE9F8430546007828
:1032C000354CC00754D0E0690026C00008D4E0693E
:1032D00040F08050E061E069012600F080500090ED
:1032E0002E480168C90512D40168804641F48071F6
:1032F0000160FFF74FFA074605E000BFFFF74AFA03
:10330000C01B642823D8D8F80000C005F6D5206A71
:1033100010F4407021D0A98801F4407181421CD082
:10332000206A1F49012220F440700A6000220A60CE
:103330002062C00711D0FFF72DFA074641F2883806
:1033400008E000BFFFF726FAC11B414502D9032060
:10335000BDE8F883206A8007F4D5206A696820F404
:103360004070084320621EB1E06920F08050E061A7
:103370002878800705D56068A96820F44040084394
:1033800060602878C00605D56068E96820F4800090
:10339000084360600020DBE700100240007000403E
:1033A000400442422DE9F0470F46050061D0434EEC
:1033B000306800F00700B84209D2306820F00700FA
:1033C00038433060306800F00700B84251D12868B7
:1033D0003B4C810712D5400703D5606840F4E0609C
:1033E00060602878000703D5606840F46050606032
:1033F0006068A96820F0F000084360602878C00782
:1034000028D06868012810D02168022810D08907C8
:1034100000292EDA616821F0030101436160FFF7A2
:10342000B9F9804641F288390DE021688903EFE758
:103430008901EDE7FFF7AEF9A0EB0801494502D994
:103440000320BDE8F0876068696800F00C00B0EB0D
:10345000810FEFD1306800F00700B8420BD9306817
:1034600020F0070038433060306800F00700B842B1
:1034700001D00120E5E72878400705D56068E968B4
:1034800020F4E060084360602878000706D5606893
:10349000296920F4605040EAC100606000F058F8EB
:1034A0006168084AC1F30311515CC84006490860CD
:1034B00006480068FFF704FE0020C2E70020024033
:1034C0000010024042BF0008B00B0020A80B0020F3
:1034D0000F2202600C4A536803F0030343605368F1
:1034E00003F0F0038360536803F4E063C360526841
:1034F0004FF4E06303EAD20202610448006800F07E
:1035000007000860704700000010024000200240E1
:103510000448054900684968044AC1F30221515C26
:10352000C8407047B00B00200010024052BF000896
:103530000448054900684968044AC1F3C221515C46
:10354000C8407047B00B00200010024052BF000876
:103550000E4A51680E4801F00C03042B11D0082BC1
:103560000FD10C48C1F38343C903C05C0AD551682D
:10357000084AC1F34041921E515C054A5043B0FBDA
:10358000F1F07047044948437047000000100240C2
:1035900000127A0020BF000800093D002DE9F84F15
:1035A000040070D02078C04DC00749D06868C0F3CF
:1035B0008100012807D06868C0F38100022809D182
:1035C0006868C00306D52868800339D5606800287C
:1035D000E7D035E06068B0F5803F0BD010B1B0F5B2
:1035E000A02F11D0286820F480302860286820F4AB
:1035F000802002E0286840F480302860606890B144
:10360000FFF7C8F806460AE0286840F480202860E2
:10361000F0E700BFFFF7BEF8801B642873D8286866
:103620008003F7D50CE0FFF7B5F8064605E000BFCC
:10363000FFF7B0F8801B6428F0D828688003F7D41F
:1036400020789A4E80074FF001094FF0000839D5D5
:10365000686810F00C0F07D06868C0F3810002287A
:1036600009D16868C00306D42868800714D520698A
:10367000012808D110E02069B0B1C6F80090FFF72A
:1036800089F8074605E00AE1FFF784F8C01B022825
:10369000C4D828688007F7D52868616920F0F80049
:1036A00040EAC10028600DE0C6F80080FFF772F81C
:1036B000074604E0FFF76EF8C01B022823D82868ED
:1036C0008007F7D4207800072CD57948A169D9B1B3
:1036D000C0F80090FFF75EF8074604E0FFF75AF8DD
:1036E000C01B02280FD8686A8007F7D571484FF4CD
:1036F000FA510068B0FBF1F0009000BF0098411E45
:103700000091FAD20EE080E0C0F80080FFF742F8A6
:10371000074604E0FFF73EF8C01B022875D8686A28
:103720008007F7D42078400760D5E8690027C000FB
:1037300008D4E86940F08050E861E869012700F0AA
:10374000805000905C480168C90513D40168834625
:1037500041F480710160FFF71DF8824606E000BF6A
:10376000FFF718F8A0EB0A0064284ED8DBF8000039
:10377000C005F5D5E06801280AD008B1052813D0A6
:10378000286A20F001002862286A20F0040002E084
:10379000286A40F001002862E06841F2883B98B155
:1037A000FEF7F8FF82460BE0286A40F0040028622A
:1037B000EEE700BFFEF7EEFFA0EB0A0159455AD82D
:1037C000286A8007F6D50CE0FEF7E4FF824605E0A4
:1037D000FEF7E0FFA0EB0A0159454CD8286A8007A4
:1037E000F6D41FB1E86920F08050E861E06988B341
:1037F0006968C1F38101022944D00228C6F86080BB
:1038000004D0FEF7C7FF044638E034E0FEF7C2FFFD
:10381000074604E0FEF7BEFFC01B02282BD828682D
:103820008001F7D4206AB0F5803F05D16868A168AF
:1038300020F4003008436860D4E90801084369684F
:1038400021F4741108436860C6F86090FEF7A2FF87
:10385000044606E025E000BFFEF79CFF001B02289F
:1038600009D828688001F7D51BE000BFFEF792FF5A
:10387000001B022802D90320BDE8F88F28688001C8
:10388000F4D40EE00128F7D06868226A00F4803191
:10389000914204D1616A00F47010884201D0012085
:1038A000EAE70020E8E70000001002400000424282
:1038B00080044242B00B0020007000407047704707
:1038C00070B590F83C20012A26D0012480F83C40B5
:1038D000022280F83D2003685A689D6822F0700635
:1038E0000A6832435A600D4B02689A4208D0B2F11E
:1038F000804F05D00A4B9A4202D00A4B9A4204D11B
:10390000496825F080031943916080F83D4000210B
:1039100080F83C10084670BD022070BD002C0140AC
:10392000000400400008004010B5040003D094F8E3
:103930003D0010B107E0012010BD002084F83C00DC
:10394000204600F01FF8022084F83D00211D206869
:1039500002F0C6F8012084F8460084F83E0084F89E
:103960003F0084F8400084F8410084F8420084F865
:10397000430084F8440084F8450084F83D000020AA
:1039800010BD000008B501681D48B1F1804F11D08D
:103990001C4A91421DD1C16941F00201C161C06957
:1039A000002200F00200009005211D20FFF700FC1E
:1039B0001D201FE0C16941F00101C161C069002201
:1039C00000F00100009005211C20FFF7F1FB1C20F6
:1039D00010E00D4A914211D1C16941F00401C16169
:1039E000C069002200F00400009005211E20FFF7AE
:1039F000DFFB1E20BDE80840FFF7CCBB08BD000080
:103A000000100240000400400008004090F83D1003
:103A1000012901D001207047022180F83D10016882
:103A2000CA6842F00102CA6000680B49884208D0A7
:103A3000B0F1804F05D00949884202D00849884238
:103A400004D1816801F00701062903D0016841F023
:103A50000101016000207047002C0140000400407B
:103A60000008004001680A6A41F211131A4207D1A6
:103A70000A6A9B101A4203D10A6822F001020A6006
:103A8000012180F83D100020704770B5044690F881
:103A90003C000025012817D0012684F83C60022054
:103AA00084F83D002068826822F0770222F47F4289
:103AB00082600868502838D00DDC20284FD005DC03
:103AC00090B3102811D14AE0022070BD302846D0B2
:103AD00040280AD13BE060282FD070280DD0B0F5E7
:103AE000805F03D0B0F5005F12D0012584F83D60FF
:103AF000002084F83C00284670BDCB68D1E9012144
:103B0000206802F029F82068816841F0770109E017
:103B1000CB68D1E90121206802F01EF82068816895
:103B200041F480418160E1E719E0CA684968206892
:103B300002F024F85021206806E0CA68496820682D
:103B400002F02DF86021206802F010F8CEE7CA6874
:103B50004968206802F012F840212068F4E72268E2
:103B600001461046F0E770472DE9F0410446006831
:103B7000C66805694FF00007A90713D5B10711D52D
:103B8000F91E0161012020772068806980072046A6
:103B900002D0FFF7E8FF04E000F07EF8204600F0D6
:103BA0007CF82777680716D5700714D521686FF061
:103BB00004000861022020772068806910F4407FAB
:103BC000204602D0FFF7CFFF04E000F065F8204662
:103BD00000F063F82777280715D5300713D521683B
:103BE0006FF008000861042020772068C069800712
:103BF000204602D0FFF7B7FF04E000F04DF8204662
:103C000000F04BF82777E80616D5F00614D52168A2
:103C10006FF010000861082020772068C06910F458
:103C2000407F204602D0FFF79EFF04E000F034F80A
:103C3000204600F032F82777E80708D0F00706D0D2
:103C400021686FF001000861204600F027F828067F
:103C500008D5300606D521686FF08000086120463F
:103C6000FFF72CFE680608D5700606D521686FF0B0
:103C700040000861204600F043F8A8060AD5B006C7
:103C800008D521686FF0200008612046BDE8F041AA
:103C9000FFF715BEBDE8F0817047704770B5044668
:103CA0000068104DA84201D1FFF7F0F92268AA423E
:103CB0000BD10D480168491C0160B1F5FA7F04D3AE
:103CC000002101600949012008700948824207D19A
:103CD0000848FFF7C7FE084802F070FB0749087064
:103CE00070BD0000002C0140240000201C000020BA
:103CF0000008004080130020500C0020200000200D
:103D00007047704710B504460068406994F8411048
:103D1000C0F3C010212911D180B12068143050E8BF
:103D2000001F21F0800140E80012002AF5D1A06BAD
:103D300008B1FEF7A8FA204602F018F92068406999
:103D400094F84210C0F38010222911D180B120686C
:103D5000143050E8001F21F0400140E80012002A12
:103D6000F5D1E06B08B1FEF78EFA204602F0D7F8E5
:103D7000002010BD70470000F8B5016804460868CF
:103D8000CA684B6910F00F0F4FF0000559D003F0CF
:103D9000010602F49077374365D0C10705D0D105FD
:103DA00003D5616C41F001016164410705D5D90774
:103DB00003D0616C41F002016164810705D5D90728
:103DC00003D0616C41F004016164010707D502F082
:103DD0002001314303D0616C41F008016164616CE2
:103DE00000293AD0800604D5900602D5204602F07C
:103DF000CBF820684069616CC0F38010090700D4DB
:103E000060B3204602F08BF820684069400621D557
:103E10002068143050E8001F21F0400140E80012F3
:103E2000002AF5D1E06BA8B16D494163E06BFEF764
:103E30004DFA002811D0E06B416B01B0BDE8F040B5
:103E4000084783060FD593060DD52046BDE8F840F8
:103E500002F09AB82046FFF78DFFF8BD2046FFF725
:103E600089FF6564F8BD266B2023012E7CD1C60630
:103E70007AD5D60678D508684868009048694FF02A
:103E80000206400640D5E16B086840680004000C5B
:103E9000E8D0A28D8242E5D9E085886920282DD01E
:103EA00020680C3050E8001F21F4807140E80012B7
:103EB000002AF5D12068143050E8001F21F00101DC
:103EC00040E80012002AF5D12068143050E8001FA5
:103ED00021F0400140E80012002AF5D184F8423078
:103EE000256320680C3050E8001F21F0100140E8E5
:103EF0000012002AF5D1E06BFEF7C5F96663A08DCC
:103F0000E18D401A81B22AE0A08DE18D401A81B284
:103F1000E08D0028A6D00029A4D022680C3252E8F7
:103F2000000F20F4907042E80007002FF5D12068C0
:103F3000143050E8002F22F0010240E80027002F43
:103F4000F5D184F84230256320680C3050E8002F0A
:103F500022F0100240E80023002BF5D166632046D2
:103F6000FFF7CFFEF8BDFFE705062BD5150629D5CF
:103F700094F841002128F5D1A068B0F5805F01D107
:103F80002069B0B1206A411C216221680078486034
:103F9000E08C401E0004000CE084E3D12068C1687E
:103FA00021F08001C1602068C16841F04001C1601A
:103FB000D8E7206A0088C0F308004860206A801CA7
:103FC0002062E5E74006CDD55006CBD5CA6820462D
:103FD00022F04002CA6084F8413000F0E1F9C1E704
:103FE000215E000870B5040004D094F8410000255B
:103FF00010B106E0012070BD84F84050204600F06A
:1040000023F8242084F841002068C16821F400517D
:10401000C160204602F01AF82068016921F490413D
:1040200001612068416921F02A0141612068C1686D
:1040300041F40051C1606564202084F8410084F897
:1040400042006563002070BD2DE9F04385B0002477
:104050000094019402940394054603685B48DFF8DA
:1040600068C102210322DFF86881061580274FF01E
:104070002009634537D1836943F4804383618369B1
:1040800003F480430493836943F0040383618069EC
:10409000039200F0040004900802CDE90001694693
:1040A0004046FEF781FACDE9006469464046029435
:1040B000FEF77AFA484E4748C6E90004C6E90247C7
:1040C0003461C6E905493046F461FEF7F5F908B1F7
:1040D000FDF754FAEE630022052125207562FFF7F3
:1040E00067F8252029E0DFF8F4C063452AD1C369C9
:1040F00043F40033C361C36903F400330493836959
:1041000043F0040383618069039200F0040004908B
:104110000420CDE9000169464046FEF745FA082033
:10412000CDE90004694640460294FEF73DFA0022BC
:1041300005212620FFF73CF82620FFF72BF805B0D5
:10414000BDE8F083DFF898C06345F8D1C36943F454
:104150008023C361C36903F480230493836943F01C
:10416000080383618069CDE9006100F00800CDE9B2
:1041700003201C4E69463046FEF716FAF014CDE9CE
:104180000004694630460294FEF70EFA124E1148BA
:1041900044362838C6E90004C6E9024734614FF4C2
:1041A00000507461C6E906903046FEF785F908B103
:1041B000FDF7E4F9EE630022052127207562FEF782
:1041C000F7FF2720B9E70000003801400010024047
:1041D0000008014058000240A016002000440040A2
:1041E00000480040000C014090F84230202B01D0E4
:1041F0000220704721B11AB10023036301F082BF8E
:104200000120704770B500681049002588420AD126
:104210000F4C6B1E20784142CAB20E4901440E4831
:1042200000F06EF810E00D4988420ED10C4C207859
:104230004142CAB20B4901440B48FDF787F90028F7
:1042400002DA0AA002F044F9257070BD003801407E
:1042500034000020C81300205816002000480040F9
:1042600035000020C8140020500C00204649464F5D
:104270002046756C6C0A000070B5006815498842CC
:1042800010D1154C4FF0FF332078C0F18001CDB232
:1042900012492A460144124800F032F82078284496
:1042A000207070BD0F498842FBD10F4D2878C0F1B6
:1042B0008001CCB20D49224601440D48FDF746F974
:1042C000002802DA0BA002F003F9287820442870B5
:1042D00070BD00000038014034000020C8130020E9
:1042E000581600200048004035000020C814002067
:1042F000500C00204649464F2046756C6C0A000061
:104300002DE9F843044690F84100984616460D46BC
:10431000202802D00220BDE8F88385B17EB10020BC
:104320006064212084F84100FEF734FAA6848146B7
:10433000E684A0682027B0F5805F02D003E001206A
:10434000E9E7206910B12E4600250EE000260CE0BA
:104350008021204601F01EFFA8B9C6B116F8010B56
:1043600021684860E08C401EE084E08C4B464FF0B2
:104370000002CDF800800028EAD14FF0400120462D
:1043800001F008FF40B184F841700320C3E735F81D
:10439000020BC0F30800E3E784F841700020BAE79D
:1043A0007047FEE701684A69D24352050FD46FF4A3
:1043B00080624A61002140F8301F202242738173DD
:1043C000026942F00402026101730120704700207B
:1043D000704700002DE9F84F0446C06A1E46934618
:1043E0000D4621680A6842F480620A60082807D0F6
:1043F000012805D010F5803F02D0206B112804D190
:104400002068016841F4807101604FF001195B463A
:10441000002249462046009600F09EF94FF40078AD
:1044200040B120680068C00501D5C4F84080032071
:10443000BDE8F88F2069DFF884A0B0F5804F0FD079
:104440000620216800EAD51747F0F00008613346DE
:104450005A460AF10601204600F0C6F958BB03E0AF
:10446000E8B240F001001CE02168E8B20861334680
:104470005A465146204600F0B7F9E0B92068416934
:1044800081690091016841F4807101605B460022FE
:1044900049462046009600F05FF90028C1D147F058
:1044A000F1002168086133465A465146204600F023
:1044B0009BF90028BCD00120BAE7000002000100EF
:1044C000F8B50446C06A1E460D461746082807D0B0
:1044D000012805D010F5803F02D0206B122804D1AE
:1044E0002068016841F480710160134600224FF09A
:1044F00001112046009600F02FF940B120680068B5
:10450000C00502D54FF4007020640320F8BD206977
:10451000B0F5804F0ED00620216800EAD51040F09B
:10452000F000086133463A460B49204600F05CF93A
:1045300078B902E005F0FE0000E0E8B22168086109
:10454000054933463A46891F204600F04DF90028B8
:10455000DCD00120F8BD0000080001002DE9F84F73
:104560000446006889460B9D01689846174641F449
:10457000806101602068016841F4807101600095EC
:104580004FF0011B0022594620460A9B00F0E4F838
:104590004FF4007A40B120680068C00501D5C4F826
:1045A00040A00320BDE8F88F216809F0FE000861F3
:1045B0002B46284920460A9A00F016F9F0BB2068DD
:1045C0004169806900902A4620460A9900F0A2F9C4
:1045D00040B1206C04283AD12068016841F4007190
:1045E000016034E0FEB2B8F1010F09D02168380A49
:1045F00008612A4620460A9900F08CF90028E8D183
:10460000206806612A4620460A9900F083F90028AE
:10461000DFD12068016841F48071016000950022BB
:10462000594620460A9B00F097F80028B3D121682C
:1046300009F0FF0040F00100086100E007E02B46B0
:10464000044920460A9A00F0CFF80028AAD0012099
:10465000A8E70000020001002DE9F84304460068C5
:104660000D46DDE9089701689846164641F48071C9
:1046700001604B4600224FF001112046009700F0E8
:104680006BF848B120680068C00502D54FF400708F
:1046900020640320BDE8F883216805F0FE0008616E
:1046A0003B464A461549204600F09EF888B92068E6
:1046B0004169806900903A464946204600F02AF94F
:1046C00048B1206C042804D12068016841F40071CD
:1046D00001600120DEE7F5B2B8F1010F09D02168D1
:1046E000300A08613A464946204600F013F900288E
:1046F000E7D1206805610020CCE70000020001003E
:1047000070B516460D4604461EE02046FFF74AFEE9
:1047100008B1012070BD681C16D0FEF73BF8801B65
:10472000A84200D885B920684069C04340070BD52E
:10473000002044F8300F20216173A073216941F0FB
:10474000200121612073E4E720684069C0434007ED
:10475000DBD4002070BD00002DE9F04798461746D5
:104760000D460446C1F30746DDF820902AE000BF5D
:10477000B8F1FF3F26D0FEF70DF8A0EB0901414547
:1047800002D8B8F1000F1DD12068012E16D0806923
:1047900025EA00000004000C12D00020B84211D11C
:1047A000002044F8300F20216173A073216941F08B
:1047B0002001216120730120BDE8F0874069E7E70F
:1047C0000120EBE72068012E0AD0806925EA00006D
:1047D0000004000C06D00020B842C9D00020EBE74E
:1047E0004069F3E70120F7E72DE9F04798461646C0
:1047F0000D4604464FF000094FF0200AC1F3074769
:1048000023E020684069C043400515D42068016852
:1048100041F40071016021686FF480604861C4F860
:10482000309084F83DA084F83E90216C41F0040162
:10483000216484F83C9021E0701C06D0FDF7AAFFAB
:10484000A0EB0800B04203D816B1012F1FD021E021
:104850002068012F15D0806925EA00000004000CB3
:1048600018D000BF44F8309F84F80DA084F80E9053
:10487000216941F02001216184F80C900120BDE8FC
:10488000F087406925EA00000004000CEAD12068A6
:10489000406901E02068806925EA00000004000CFE
:1048A000AFD1ECE72DE9F041002590460E460446D5
:1048B000202728E04069C043C0060CD454F8301BC0
:1048C0006FF01000486144F810596777A577206AA7
:1048D0002062257714E0FDF75DFFA0EB0800B042F1
:1048E00000D886B920684069C04340060BD544F81B
:1048F000305F6773A573206940F020002061257345
:104900000120BDE8F08120684169C9434906D1D43E
:104910000020F6E770B516460D4604461EE0204618
:10492000FFF740FD08B1012070BD681C16D0FDF7EF
:1049300031FF801BA84200D885B920684069C04378
:1049400000060BD5002044F8300F20216173A073BE
:10495000216941F0200121612073E4E7206840696A
:10496000C0430006DBD4002070BD00007CB50025EC
:104970008DF8045047208DF80500FF248DF806407F
:10498000032301AA82210B480094FEF7F5F80520C5
:10499000FDF7F8FD05208DF8040014208DF80500C2
:1049A0008DF80650032301AA822102480094FEF7E5
:1049B000E3F87CBD9C12002070B500F059F8044665
:1049C00000F03AF8064600F06FF805462046FCF77E
:1049D0003CF81349FBF72AFE04463046FCF735F84D
:1049E0001049FBF723FE1049FBF752FE0646284606
:1049F000FCF72BF80D49FBF719FE05460C4920463C
:104A0000FBF714FEFCF733F80A4CE0803046FCF765
:104A10002EF820812846FCF72AF8608170BD00003E
:104A2000CDCCCC3D0000A03F00007A4400002040E7
:104A30000000C842901800203EB50BA0FF2400687B
:104A40000290012302AA822100940848FEF794F8FC
:104A5000022301AA822105480094FDF765FFBDF8F5
:104A6000040040BA3EBD0000020000009C1200207D
:104A70003EB50BA0FF2400680290012302AA822108
:104A800000940848FEF778F8022301AA822105481D
:104A90000094FDF749FFBDF8040040BA3EBD000098
:104AA000040000009C1200203EB50BA0FF2400680B
:104AB0000290012302AA822100940848FEF75CF8C4
:104AC000022301AA822105480094FDF72DFFBDF8BD
:104AD000040040BA3EBD0000030000009C1200200C
:104AE0000A4B012808D002280ED1C001012906D0A6
:104AF000002909D1012203E04FF40070F6E70022FB
:104B000001461846FDF740BE70470000000C01400A
:104B1000F0B591B040216846FBF781FBFCF730FD12
:104B2000014645A001F0D4FC474D00242C7047A15C
:104B3000684601F0DDFC6846FBF78EFB82B24FF45D
:104B40007A76334669464748FFF7DAFB304601F08C
:104B500009F902286DD02C70FCF712FD024642A123
:104B6000684601F0C5FC6846FBF776FB82B2334627
:104B700069463C48FFF7C4FB304601F0F3F80228D1
:104B800057D02C703CA16846FBF788FB6846FBF7C2
:104B900063FB82B2334669463248FFF7B1FB41F20C
:104BA0008837384601F0DEF8022842D02C70FCF736
:104BB000E7FC024639A1684601F09AFC6846FBF71B
:104BC0004BFB82B2334669462648FFF799FB3846CD
:104BD00001F0C8F801282CD12C703CA1684601F0E6
:104BE00087FC6846FBF738FB82B2334669461D48AE
:104BF000FFF786FB384601F0B5F8022819D02C7073
:104C000037A1684601F074FC38A13C48FBF746FB2D
:104C10006846FBF721FB82B2334669461148FFF72D
:104C20006FFB384601F09EF8022802D0012011B037
:104C3000F0BD0020FBE700006370756964206973B4
:104C40002025730A000000002000002041542B445E
:104C500054555441534B3D2231222C223230220DE7
:104C60000A0000005816002041542B4D5154543D69
:104C7000222573220D0A000041542B4D51545449F2
:104C8000503D2262726F6B65722E656D71782E6970
:104C90006F222C2231383833220D0A0041542B4D1B
:104CA000515355423D2231222C2231222C223422D2
:104CB0002C2253544D333256392F446F776E4C6F3C
:104CC00061642F2573220D0A0000000041542B4D12
:104CD000514D554C54454E3D2230220D0A000000E6
:104CE00041542B524553540D0A0000004D51545469
:104CF0005F434F4E4E4543543A000000F70E0020EC
:104D000000F008F841F2883400F090F8204603F0F3
:104D1000EAFAF9E710B5FFF7FBFE012804D10349D1
:104D2000087003A001F0D4FB012010BD1F0000207B
:104D30004D51545420E69C8DE58AA1E599A8E8BF21
:104D40009EE68EA5E68890E58A9FEFBC81EFBC8148
:104D5000EFBC810A000000002DE9F04102F0DCFA0E
:104D6000040038D024A102F0C9FA074624A1204645
:104D700002F0C4FA064624A1204602F0BFFA054616
:104D800023A1204602F0BAFA23497A692AB1012AFE
:104D90000A8825D022F001020A8072692AB1012A0C
:104DA0000A8820D022F002020A806A692AB1012A08
:104DB0000A881BD022F004020A80406928B1012829
:104DC000088816D020F008000880204602F06EFA0D
:104DD0000120BDE8F08111A001F07AFB0020F8E786
:104DE00042F00102D8E742F00202DDE742F004029D
:104DF000E2E740F00800E7E74C45443100000000DE
:104E00004C4544320000000042454550000000007F
:104E100052454C4159000000901800207061727397
:104E200065206661696C2E0A0000000010B5164806
:104E300086B00DF1040C0189C489838942898CE80C
:104E40001E00C18800918388428810A11E4801F08D
:104E50004FFB1D4A1DA102F1800001F049FB1A49D8
:104E60001AA0803101F034FB17488030FBF7F4F9C9
:104E7000154982B24FF47A7380311548FFF740FA32
:104E800006B0012010BD0000901800207B22545075
:104E9000223A25642C225248223A25642C22564F6D
:104EA000223A25642C224355223A25642C2250575D
:104EB000223A25642C225652223A25642C22435051
:104EC00055223A25647D0000780D002025730000EE
:104ED000581600203EB50021124800910191104A59
:104EE0000291026081600173017501244FF4602218
:104EF0000461C2614160FCF77DFC08B1FCF73EFB38
:104F00001020CDE900040720029069460548FCF70F
:104F1000EFFB08B1FCF732FB0248FCF77DFB3EBD1E
:104F2000002401406C1200200F4810B50D490160AB
:104F30000821416000214FF4A0228160C0E90312E2
:104F40004FF480124261017641768176C176017715
:104F50004177FDF771F8002803D0BDE81040FCF759
:104F60000DBB10BD00640040280C00200D4808B5A2
:104F7000416941F0010141614069002200F00100F6
:104F8000009005210D20FEF713F90D20FEF702F920
:104F9000002205210F20FEF70BF9BDE808400F2085
:104FA000FEF7F8B80010024010B596B01C22114967
:104FB0006846FBF71BF90021684603F0A0F90E4C88
:104FC0000C491C2220601C3107A8FBF70FF90021B7
:104FD00007A803F094F9074960601C2238310EA835
:104FE000FBF704F900210EA803F089F9A06016B0C0
:104FF00010BD0000C4BB0008280000202DE9F041CE
:1050000086B000242C480094019402940394816992
:1050100041F010018161816901F010010491816901
:1050200041F020018161816901F0200104918169D1
:1050300041F004018161816901F0040104918169F9
:1050400041F00801816180691C4F00F008004FF4B5
:1050500000550490002229463846FDF795FBDFF8FD
:105060006080002206214046FDF78EFB01224FF4AE
:1050700040714046FDF788FB009502260125039606
:10508000CDE9015469463846FDF78EFA40F2023008
:10509000CDE90005CDE9024669464046FDF784FAB0
:1050A0000420CDE9000569464046CDE90245FDF7FB
:1050B0007BFA06B0BDE8F08100100240001001400C
:1050C000000C01400D4810B50B4901600C494160CE
:1050D00000214FF480428160C0E903124161816187
:1050E000C1610162FDF75CFB002803D0BDE8104000
:1050F000FCF744BA10BD0000005400409C12002090
:10510000A086010010B586B00024174800940194D1
:105110000294039404944FF0804105940160472168
:10512000C0E901144FF40051C0E9031480218161EA
:10513000FEF7FAFB08B1FCF721FA4FF4805000901B
:1051400069460948FEF7A1FC08B1FCF717FA049478
:1051500004A905480594FEF7B3FB002801D0FCF72D
:105160000DFA06B010BD0000F012002010B586B098
:105170000024174800940194029403940494134962
:105180000594016040F60F61C0E901146421C0E993
:10519000031480218161FEF7C7FB08B1FCF7EEF92B
:1051A0004FF48050009069460948FEF76EFC08B144
:1051B000FCF7E4F9049404A905480594FEF780FB84
:1051C000002801D0FCF7DAF906B010BD0004004059
:1051D0003813002010B586B00024174800940194BD
:1051E00002940394049413490594016041F61F410D
:1051F000C0E901146421C0E903148461FEF794FB43
:1052000008B1FCF7BBF94FF48050009069460A489A
:10521000FEF73BFC08B1FCF7B1F9049404A9064879
:105220000594FEF74DFB002801D0FCF7A7F906B066
:1052300010BD000000080040801300200C4810B58D
:105240000A4901604FF4E1314160002181600C2284
:10525000C160C0E904128161C161FEF7C3FE00288C
:1052600003D0BDE81040FCF789B910BD00380140FB
:10527000C81500200C4810B50A4901604FF4E1310F
:105280004160002181600C22C160C0E9041281618B
:10529000C161FEF7A7FE002803D0BDE81040FCF76F
:1052A0006DB910BD00440040101600200C4810B528
:1052B0000A4901604FF4E1314160002181600C2214
:1052C000C160C0E904128161C161FEF78BFE002854
:1052D00003D0BDE81040FCF751B910BD00480040B4
:1052E00058160020FEE702F043FB00F049F80A20C0
:1052F00002F0F9FFF7E7000010B58AB0202102A8FC
:10530000FAF78DFF1149002000F08CFA0F4C10A025
:10531000641E617801F0DCF8627814A102A801F043
:10532000E7F8022302AA0621002000F003F900207A
:105330000121CDE900014FF4E1330246617802F02A
:10534000D5FA02F0EFF80AB010BD00001D000020F1
:10535000526561645F536C61766541646472657324
:10536000732069732025640A00000000536C617685
:10537000654164726573733A253264200000000051
:1053800070B5224C2078002630B12670FBF704FF60
:10539000FFF712FBFBF73AFEA0781D4D90B1A67007
:1053A000A97C6170002001F07DF80A20FDF7EAF881
:1053B00002F0A8F802F096F8FFF79EFF6178154812
:1053C00005F06AF92878C00701D0012100E000212A
:1053D0000120FFF785FB2878800701D5012100E037
:1053E00000210220FFF77CFB2878400701D501202F
:1053F00000E00020FBF77AFF2878000701D50120A4
:1054000000E00020BDE8704000F0FCB91C00002066
:10541000901800205C090020FEE70020AFF3008018
:1054200070B506465FF0000404F1B000C0B201F0B0
:1054300015F8002001F012F8102001F00FF80025F7
:10544000304601F01DF86D1CEDB2802DF8D3641CC0
:10545000E4B2082CE8D370BD10B50120FDF792F836
:10546000AE2000F0FBFF202000F0F8FF102000F03D
:10547000F5FFB02000F0F2FFC82000F0EFFF0020A1
:1054800000F0ECFF102000F0E9FF402000F0E6FF04
:10549000812000F0E3FFFF2000F0E0FFA12000F0FA
:1054A000DDFFA62000F0DAFFA82000F0D7FF3F20A4
:1054B00000F0D4FFA42000F0D1FFD32000F0CEFFF5
:1054C000002000F0CBFFD52000F0C8FFF02000F056
:1054D000C5FFD92000F0C2FF222000F0BFFFDA2074
:1054E00000F0BCFF122000F0B9FFDB2000F0B6FF97
:1054F000202000F0B3FF8D2000F0B0FF142000F05A
:10550000ADFFBDE81040AF2000F0A8BF10B50446C5
:10551000B031C8B200F0A2FF102040EA141000F031
:105520009DFF04F00F00BDE8104040F0010000F0C6
:1055300095BF00002DE9F047002591468A460446B4
:10554000012B22D0DFF8BC80022B24D155E020387B
:10555000C7B27E2C04D90AF10100002400F0FF0A32
:1055600051462046FFF7D2FF07EB4700002608EB25
:105570004007B85D00F084FF761CF6B2062EF8D323
:10558000A41D6D1CE4B2EDB201E0DFF87C8019F8D7
:1055900005000028DBD1BDE8F0872038C7B2782CA1
:1055A00004D90AF10100002400F0FF0A5146204608
:1055B000FFF7ACFF5FF0000606EB071118F80100DB
:1055C00000F05EFF761CF6B2082EF5D30AF101005A
:1055D000C1B22046FFF79AFF5FF0000606EB071105
:1055E00001EB0800007A00F04BFF761CF6B2082EA3
:1055F000F4D308346D1CE4B2EDB219F805000028AC
:10560000CBD1C8E7D4B50008ACB3000810B505F09D
:1056100057F9002010BD10B5044602F0A5FC204645
:1056200002F062FC002010BD10B5044602F034FE0A
:10563000204602F0F5FD002010BD0000D0F8081251
:10564000097869B900210A4606E000BFD0F80C329B
:1056500043F82120491CC9B290F805328B42F5D895
:105660000020704730B401EBC102846802254FF07E
:10567000FF3305EB4205635300238468062505EBE1
:105680004202A35230BCC9B204F0FABE30B401EBFE
:10569000C102846804254FF0FF3305EB42056353D4
:1056A0008368C9B213F8124024F0010403F81240D1
:1056B00030BC04F0E5BE00002DE9FC41064640691F
:1056C0004FF4C0550489B0690789C4B1DFF83C8044
:1056D000BC4214D801AB6A462946304604F0C5FEE8
:1056E000009838B9019828B1C0F80880C0F80C803B
:1056F000C0F814806D1C641CADB2A4B2E8E730465B
:10570000BDE8FC41002101F040BC0000C35B000883
:105710002DE9F0470446406900260589A069B0F8E4
:10572000088035BBBDE8F087A16806EBC6070220FC
:1057300000EB470931F90900FBF7B8FEA26822F82F
:105740000900A168042000EB470931F90900FBF7C3
:10575000ADFEA268761CF6B222F80900A16800200E
:10576000062201F81700A16802EB47026D1C88525F
:10577000ADB24545D8D9D5E73EB50446D0F8A4002A
:105780000088A8B120686946007800F5E060ADF8AF
:10579000000001208DF8030000208DF8020094F82D
:1057A00078008DF80400D4F8E00101F075FE3EBDEC
:1057B00034F9A80FFBF77AFE20803EBD10B5FF211B
:1057C000C0F80411C0F80011491CFAF728FD0020A8
:1057D00010BDD0E94010814201D101207047002066
:1057E0007047D0F80411D0F80001491CCA1701EB2A
:1057F000126222F0FF02891A814201D10120704712
:1058000000207047064B012806D0002806D1002250
:1058100002211846FCF7B8BF0122F9E770470000E3
:10582000000C01403EB50C4601254FF47A710094FE
:10583000CDE9015102462B46A1210448FDF732FA79
:10584000207800B9257001203EBD00009C12002088
:105850007CB51D46144601AB6A4604F006FE00996D
:1058600031B9019921B10079A04201D941F8245000
:1058700000987CBD2DE9FC41054640690F464088F3
:10588000002831D007EB870105EB0114A96994F8D2
:10589000282049881044884226D86968134E51F858
:1058A0003000C06A90F800804FF0FF30A4F872001A
:1058B000852084F82A0094F83200CDE90006238E72
:1058C00094F82910284604F0AFFEE662626F2AB110
:1058D000414628469047E06AB04205D1F9B22846D1
:1058E000BDE8FC4104F0A8BDBDE8FC810000040552
:1058F0001FB501EB810100EB01114A6B0AB98A6BFC
:105900004A630392012203ABCDE90032029201F116
:105910003C0391F83220098E01F0C6FB04B010BDA3
:1059200070B501EB810100EB01118C6BA0182028F0
:1059300001D9FF2070BD002006E026181D5C0E4432
:10594000401C86F83C50C0B29042F6D3886B10449D
:105950008863002070BD00002DE9F05F8B4621496F
:1059600082460026B1F900001C4691461C4D401CA1
:1059700008E000BFB9F1000F01D02A7852B1761CBF
:1059800036B21835864201DC082EF3DB4FF0FF30CB
:10599000BDE8F09F8846864201D1A8F8000002F0D9
:1059A0001FFA07464FF4005120468C4200D30846A8
:1059B000D8F80420BA4207D9D21B824204D93A1837
:1059C000C8F8042004F060FFE019C5E903B0C5E998
:1059D00001A90A986861012028703046D8E70000C4
:1059E000881A00209C0B002004F03ABE10B550200D
:1059F00080F31188BFF34F8FBFF36F8F05F00EFC5C
:105A000018B104494FF080500860002080F31188DD
:105A100010BD000004ED00E030B593B028216846C9
:105A2000FAF7FDFB14210AA8FAF7F9FB002501207B
:105A30000F9510951195010412958DE8230004909F
:105A40004FF4E010CDE90810022407946846FDF7F2
:105A5000A5FD08B172B6FEE70AA90F2081E8310062
:105A60004FF48060CDE90D0502210AA8FDF79AFCEC
:105A700008B172B6FEE74FF4004011900F940FA8E2
:105A8000FDF71AFC002801D072B6FEE713B030BD56
:105A9000704700000148FEF767B800002817002093
:105AA00010B50348FEF760F8BDE8104000F06CB98F
:105AB000F0120020054800680169C90705D06FF0A1
:105AC0000101016102480068004770473813002057
:105AD000600000200148FEF747B800008013002056
