:020000040800F2
:10000000581F00209D010008354A0008CF3900081C
:10001000414900080D1300089D530008000000002E
:1000200000000000000000000000000005010008C2
:10003000471300080000000049010008BD4C0008FB
:10004000B7010008B7010008B7010008B7010008B0
:10005000B7010008B7010008B7010008B7010008A0
:10006000B7010008B7010008B7010008B701000890
:10007000B701000811130008B7010008B701000814
:10008000B7010008B7010008B7010008B701000870
:10009000B7010008B7010008B7010008B701000860
:1000A000B7010008654D0008B7010008B701000856
:1000B000B7010008714D0008914D0008B701000814
:1000C000B7010008B7010008B7010008B701000830
:1000D000B7010008B70100088D520008D15200088E
:1000E000B7010008B7010008B7010008DFF810D019
:1000F00000F0CAFE0048004749690008AFF30080DD
:10010000581F0020224B19680868B0E8F00F80F3F0
:100110000988BFF36F8F4FF0000080F311884EF015
:100120000D0E70470000000006480068006880F36C
:10013000088862B661B6BFF34F8FBFF36F8F00DFE1
:1001400000BF00BF08ED00E0EFF30980BFF36F8F41
:100150000F4B1A6820E9F00F106008B54FF05000FF
:1001600080F31188BFF34F8FBFF36F8F07F09EFBB3
:100170004FF0000080F31188BDE808401968086856
:10018000B0E8F00F80F30988BFF36F8F704700BFAE
:1001900018010020EFF305807047000006488047F3
:1001A00006480047FEE7FEE7FEE7FEE7FEE7FEE75C
:1001B000FEE7FEE7FEE7FEE7614D0008ED00000800
:1001C000202A04DB203A21FA02F00021704721FAAC
:1001D00002F3D040C2F12002914008431946704713
:1001E000A0F14101192900D82030704740EA0103ED
:1001F0009B0703D009E008C9121F08C0042AFAD2DD
:1002000003E011F8013B00F8013B521EF9D27047A0
:10021000D2B201E000F8012B491EFBD27047002248
:10022000F6E710B513460A4604461946FFF7F0FFF5
:10023000204610BD30B505462A460B4612F8010B84
:1002400013F8014B08B1A042F8D01CB1002802D02D
:100250006D1CF1E7284630BD421C10F8011B002937
:10026000FBD1801A704710B5002200E0521C835C5D
:100270008C5CA34201D1002BF8D1D8B2E1B2401A74
:1002800010BD30B504460020034600E05B1C9342DD
:1002900003D2E05CCD5C401BF8D030BD034611F8C2
:1002A000012B00F8012B002AF9D11846704730B510
:1002B00005460020034600E05B1C934205D2EC5C3F
:1002C000C85C201A01D1002CF6D130BD2DE9FF4FBA
:1002D000087883B09946FF2805D0491C2D2804D002
:1002E0000024002008E000200BE00124F9E700EBE7
:1002F000800003EB4000491C0B78FF2BF7D104B1C1
:10030000404200230293147819461D462D2C01D03B
:100310002B2C04D1521C2D2C13D000240294AA465D
:100320001478FF2C0FD00A25A3FB057801FB05816B
:100330004FF0000C03FB0C11521CE3194AEB0101B6
:10034000EEE70124EAE7814453EA010002D019F5FF
:10035000C87F06DA03980021C0E9001107B0BDE8A4
:10036000F08F0025AE4E2F46DFF8B882184600F019
:1003700067FDCDE90001B9F1000002DAC9F100041E
:1003800000E004460023A74A1AEB030B42EB045A91
:1003900012E0E00707D02A4633463846414600F0CF
:1003A0005CFA074688462A4633461046194600F04E
:1003B00054FA05460E466410002CEAD1DDE900012E
:1003C000B9F1000F5A46534606DA00F0B8FA3A4639
:1003D000434600F0B4FA05E000F03FFA3A464346DF
:1003E00000F03BFA029A0AB181F00041039AC2E997
:1003F0000001B3E72DE9FF4F1F468DB0D7E9014655
:100400004FF0FF382E2045464FF000090B90B96998
:100410006D1C0E988847396A824688470028F6D1B5
:10042000BAF1FF3F0AD024F4D064002E11DDBAF1F6
:100430002B0F08D0BAF12D0F0BD102E0404611B0BE
:100440008DE744F48064B9696D1C0E988847824634
:10045000761E6946600501D52D2000E02B208DF821
:10046000000001F1010B0DF1200809E0B9696D1CD4
:100470000E98884782460F9844F40074761E0560F3
:10048000002E02DDBAF1300FF0D00B998A453ED133
:1004900044F0800406E00F99681CA9F1010944F4B6
:1004A00000740860B9696D1C761E0E9888478246F4
:1004B0003028F0D02BE00B998A4505D1200603D4D3
:1004C00044F08004761E18E0504605F04DF908B35C
:1004D0000DF11301761E44F400748B4508D2AAF185
:1004E00030000BF8010B200607D5A9F1010003E04D
:1004F000200602D409F101008146A00502D50F991A
:10050000681C0860B9696D1C0E9888478246002EE9
:10051000D1DC53E0002E51DDBAF1650F02D0BAF103
:10052000450F4BD1A00549D5B9696D1C24F4407421
:10053000761E0E9888478246002E0CDD2B2804D0AC
:10054000BAF12D0F07D144F48074B9696D1C0E986F
:1005500088478246761EE00501D52D2100E02B213B
:1005600008F8011BCDF82C8021E00DF12901761E41
:1005700044F4007488450CD2AAF1300010F0FF005A
:1005800088F8000002D10B99884509D908F10108C3
:1005900006E0E00501D5244801E042F20F708146F3
:1005A000B9696D1C0E98884782460F980560002E29
:1005B00004DD504605F0D8F80028D6D1F9690E9828
:1005C0008847FF208BF8000088F800000020069084
:1005D00007904B466A4608A906A8FFF777FEA005D4
:1005E00002D46FF001002AE714F0240F0AD0E007CC
:1005F00014D1DDE906123868031D3B600068C0E9CC
:1006000000120BE0DDE9060100F094FA0146E00774
:1006100004D13868021D3A600068016028460EE780
:10062000000014400000F03FF1D8FFFF80EA010213
:1006300010B502F00043400022D04A001FD0010E46
:1006400001EB1261C0F35600C2F3560240F4000001
:1006500042F40002A0FB022000047F39140400D001
:10066000401C50EA124001D44000491EC2B20C06A0
:1006700004EBD010401C4008802A02D003E0002088
:1006800010BD20F00100002900DA0020184310BD41
:1006900030B480EA010202F0004530F0004221F05F
:1006A000004013D090B1C30DD40DC2F31601C0F3B6
:1006B0001600E41A41F4000140F400027D34914236
:1006C00001D3641C00E04900002C02DA30BC002099
:1006D00070474FF400000023914201D3891A03436D
:1006E00040084FEA4101F7D151B1914202D14FF098
:1006F000004105E002D24FF0010101E06FF001017D
:1007000003EBC450284430BC00F006BB2DE9FE4F7B
:10071000804681EA0300C00F0C46009021F00041A2
:1007200023F00045B8EB0200A94105D2404621461E
:1007300090461C460B46024623F00040104347D02B
:10074000270DC7F30A00C3F30A510290401A019023
:1007500040286BDAC3F3130040F4801B00989246E4
:1007600020B10023D2EB030A63EB0B0B019859462F
:10077000C0F14002504600F040FA06460D46504691
:100780005946019A00F048FA10EB08006141002434
:1007900087EA115284EAE7731A4340D0009A62B3A1
:1007A000019A012A4FEA075215DC001B61EB020196
:1007B0004FF0004202EA0752CDE90042001C41F529
:1007C000801132462B4600F0EDFA03B0BDE8F08F01
:1007D00040462146F9E7001B61EB0201001C41F590
:1007E000801300185B412018A2F5001747EB0301A6
:1007F00040EAD570B6196D4111E06D084FEA360632
:1008000045EAC0754FEA0752001B61EB0201001C6C
:1008100041F5801149084FEA300000195141324634
:100820002B4603B0BDE8F04F00F0ADBA00980122AE
:1008300040000023D0EB020263EBE07300982146F6
:100840004FEAE074B8EB000061EB0401E9E783F0E4
:1008500000435BE781F0004158E72DE9FE4F81EA54
:10086000030404F0004421F0004100944FF0000B19
:1008700023F0004350EA01045ED052EA03045BD047
:10088000C3F30A54C1F30A552C44A4F2F33401947F
:10089000A0FB0254C1F3130141F48011C3F313030D
:1008A00043F4801301FB024400FB034E840A970AC1
:1008B00044EA815447EA8357A4FB076802958D0AEE
:1008C00005FB07854FEA932C04FB0C542705029D7A
:1008D0004FEA065847EA1637B5EB08056EEB070CEA
:1008E000870E920E47EA811742EA8312A7FB0201A4
:1008F000B6EB0B0164EB00042B0D43EA0C335E18DE
:1009000044EB1C50DA465146E7FB0201C5F31304E1
:100910004FEA0B3343EA14534FEA0432019C43EA93
:100920000603A4F10C040294009CCDE900B400F08D
:1009300039FA03B0BDE8F08F00200146F9E72DE950
:10094000F04D81EA030404F0004B21F00045144609
:100950004FF0000A23F0004150EA050220D054EA8B
:1009600001021DD0C5F30A570246C5F31303C1F3B4
:100970001300C1F30A5640F4801543F48013A7EB2B
:100980000608101BD64608F2FD3873EB050002D3AB
:1009900008F1010801E092185B41B8F1000F03DA99
:1009A00000200146BDE8F08D00204FF4801106467E
:1009B00084460EE0171B73EB050705D3121B63EB90
:1009C000050306434CEA010C49084FEA300092182F
:1009D0005B4150EA0107EDD152EA030012D082EAEE
:1009E000040083EA0501084305D0101BAB4106D281
:1009F0000122002306E000224FF0004302E06FF0E6
:100A0000010253101AEB06004CEB085110EB0A00E0
:100A100041EB0B01BDE8F04D00F0B5B970B521F028
:100A2000004303430CD0C1F30A550024D5EB040561
:100A300064EB0403D617AD1AB34102DB0020014674
:100A400070BD201841EB025170BD96230022114663
:100A500000F06BB90EB540F2334102910021CDE9AF
:100A600000110A460B4600F09DF903B000BD20F0CE
:100A70000040C10DC0F3160040F400007F2901DAE8
:100A800000207047962903DCC1F19601C8407047E9
:100A900096398840704770B5C1F30A5201F000459D
:100AA0000024C1F3130140F2FF3341F480119A4254
:100AB00001DA002070BD40F233439A42A2F2334281
:100AC00003DC5242FFF77CFB00E090402C43F1D066
:100AD000404270BD30B5041E71F1000404DB4FF0DC
:100AE0000044404264EB0101141E73F1000405DB75
:100AF0001C464FF00043524263EB04038B4208BF95
:100B0000824230BD30B5041E71F1000404DB4FF0A9
:100B10000044404264EB0101141E73F1000405DB44
:100B20001C464FF00043524263EB0403994208BF56
:100B3000904230BD01F0004330B421F0004150EA52
:100B4000010206D00A0DA2F56072C1F31301002A5A
:100B500002DC30BC00207047440F44EAC104C100ED
:100B6000E01830BC00EBC25000F0D6B830B50B46F0
:100B7000014600202022012409E021FA02F59D42CD
:100B800005D303FA02F5491B04FA02F52844151EA1
:100B9000A2F10102F1DC30BD2DE9F05F0546002035
:100BA00092469B4688460646814640241BE02846DE
:100BB000414647462246FFF703FB53465A46C01AB2
:100BC000914110D311461846224600F016F82D1A0E
:100BD00067EB01084F4622460120002100F00DF886
:100BE00017EB00094E41201EA4F10104DFDC48464A
:100BF00031462A464346BDE8F09F202A04DB203ACE
:100C000000FA02F1002070479140C2F1200320FA5F
:100C100003F3194390407047202A06DBCB17203A94
:100C200041FA02F043EAE07306E041FA02F3D040F1
:100C3000C2F120029140084319467047426842B110
:100C4000016811F8013B23B1521EC0E90012184699
:100C500070470121C160881E704742685AB1C3685D
:100C6000016843B983688B4205D0491E521CC0E914
:100C70000012002070474FF0FF3070470FB4002380
:100C800000B589B00CA900910B996FF00042CB60C0
:100C90001E4B06931E4B07930423CDE901321D4AD8
:100CA000089202466B460020FFF7A4FB09B05DF8EE
:100CB00014FB70B586B006464FF0FF300091CDE9C9
:100CC0000101002015460C4604903246694604A8EE
:100CD000FFF7D4FF02460498211825B108B1084651
:100CE00000E020462860049800280DD0002A02DD8C
:100CF0000098884208D0081B0094CDE901043246D0
:100D0000694604A8FFF7BAFF06B070BD3D0C0008A5
:100D10005B0C0008AD0E00080029A8BF7047401CFE
:100D2000490008BF20F00100704710B4B0FA80FC01
:100D300000FA0CF050EA010404BF10BC704749B13E
:100D4000CCF1200421FA04F411FA0CF118BF0121AE
:100D500021430843A3EB0C01CB1D4FEA00614FEA8E
:100D6000102042BF002010BC704700EBC35010445D
:100D70000029A4BF10BC7047401C490008BF20F0E8
:100D8000010010BC704710B5141E73F1000408DA9E
:100D9000401C41F1000192185B411A4301D120F03F
:100DA000010010BD2DE9F04D92469B4611B1B1FAFC
:100DB00081F202E0B0FA80F220329046FFF71DFF88
:100DC00004460F4640EA0A0041EA0B0153465A46E0
:100DD000084313D0114653EA010019D0C8F140026C
:100DE0005046FFF7EDF905460E4650465946424635
:100DF000FFF703FF084305D0012004E020463946F1
:100E0000BDE8F08D0020054346EAE0762C433743E9
:100E10000A986305E40AA0EB08000022FD0A44EAF0
:100E200047540A3002D500200146E9E701051019B0
:100E30006941DDE9084500196941BDE8F04DA2E7C7
:100E40000EB540F2334202920022CDE90022134651
:100E5000FFF7A8FF03B000BDC1F30A52C1F31301AD
:100E600040F2FF3341F480119A4202DA0020014639
:100E7000704740F233439A42A2F2334202DC5242BC
:100E8000FFF79EB9FFF7B9BE064C074D06E0E068D4
:100E900040F0010394E8070098471034AC42F6D3C1
:100EA000FFF728F9FC8800081C890008C0B24FF43D
:100EB000F05100F001B800007F2801D9002208E0BD
:100EC000064A02EB5002C007127800D1120902F064
:100ED0000F0201209040084070470000AC880008D5
:100EE00070B58C1810F8015B15F0070301D110F8EC
:100EF000013B2A1106D110F8012B03E010F8016B19
:100F000001F8016B5B1EF9D12B0705D40023521E9B
:100F10000DD401F8013BFAE710F8013BCB1A921C03
:100F200003E013F8015B01F8015B521EF9D5A14201
:100F3000D8D3002070BD000070B5044600688168F9
:100F4000C943C90717D1816821F00101816000F010
:100F500097FF05460AE000BF00F092FF401B022801
:100F600004D920688068C043C00706D02068806824
:100F7000C043C007F0D0002070BDA06A40F0100050
:100F8000A062E06A40F00100E062012070BD000054
:100F9000F8B500260446009600688168C943C90771
:100FA0002DD0816841F00101816016481649006822
:100FB000B0FBF1F000E0401E00900028FBD100F0F3
:100FC0005FFF054616E000BF00F05AFF401B0228F5
:100FD00010D920688068C043C0070BD0A06A40F0D9
:100FE0001000A062E06A40F00100E06284F8246032
:100FF0000120F8BD20688068C043C007E4D100200C
:10100000F8BD00004000002040420F002DE9FE4FD7
:10101000012407270094CDE901476946394800F0CB
:101020006DFA08B100F0E2F900263546354800F0C7
:101030003FFC6421334800F09DFB18B9314800F0B3
:10104000DBFA06446D1CEDB20A2DEFD30A25B6FB80
:10105000F5F0FFF7FFFCDFF8B0A04FF066394A4625
:101060005346FFF7FAFBDFF8A4B000225B46FFF718
:1010700066FCFFF75FFD2649FFF7D8FAFFF7F7FC9C
:10108000244E6946B08110208DE891001D4800F083
:1010900035FA08B100F0AAF900273C464FF47A78F7
:1010A000184800F005FC4146164800F063FB18B9EB
:1010B000144800F0A1FA0744641CE4B20A2CEFD3F0
:1010C000B7FBF5F0FFF7C6FC4A465346FFF7C5FBF2
:1010D00000225B46FFF733FC0F4A104BFFF7BAFBC9
:1010E0000F4A104BFFF72BFC00220F4BFFF70EFBB4
:1010F000FFF720FD0649FFF799FAFFF7B8FCF081EA
:10110000BDE8FE8FA807002066660A4000FEAF40DB
:101110000000C842400C0020E17A14AE47E1F63FDF
:1011200022FDF675E09C713F000039401CB5BE20E1
:101130008DF8040008208DF8050000208DF80600C9
:101140004FF6FF700090032301AA7021014801F0BF
:1011500089F81CBDD80700201CB5282000F088FDA8
:10116000BE208DF8040008208DF8050000208DF8C1
:1011700006004FF6FF700090032301AA7021054876
:1011800001F070F800F0A2F8000701D4FFF7CEFFDD
:101190001CBD0000D807002070B500F019F80A4CFB
:1011A000084E31466068FFF741FAFFF760FC074DD3
:1011B000314668802068FFF739FAFFF758FCA880AD
:1011C00070BD00000000C84200000020400C00205C
:1011D00070B586B000208DF800008DF800008DF805
:1011E00000008DF800008DF800008DF80000AC21A3
:1011F0008DF80C1033218DF80D1004468DF80E007B
:101200004FF6FF75032303AA70212B48009501F0C8
:1012100029F8502000F02CFD07E0012000F028FD07
:101220002046641CA4B2642803D200F04FF80006E4
:10123000F3D4062301AA70211F48009500F0EAFEAE
:101240009DF805009DF806109DF8074041EA002131
:1012500044EA01200009FFF7FDFB0022174BFFF7CE
:10126000FCFA6FF009063246FFF7D8FB3246FFF76B
:10127000D5FBFFF75FFC124D28609DF808109DF824
:10128000090041EA042140EA0120C0F31300FFF7FE
:10129000E1FB00220B4BFFF7E0FA3246FFF7BEFB03
:1012A0003246FFF7BBFB0022074BFFF7D0FAFFF7F0
:1012B00041FC686006B070BDD807002000005940AE
:1012C0000000002000006940000049401CB54FF6B6
:1012D000FF700090012301AA7021034800F09AFEDC
:1012E0009DF804001CBD0000D8070020064B4FF4F9
:1012F0000051012805D0002805D10022184600F031
:10130000B9BD0122FAE7704700100140FEE7000076
:10131000014800F09DBB0000940A002030B590F811
:1013200040500124AC40C56B6C6004686360436846
:10133000102B036803D099600068C26030BD9A60CA
:101340000068C16030BD704710B50C46034603F01D
:1013500076FC10B14FF0FF3010BDD3F80021521CC5
:10136000D01702EB106020F0FF00101AC3F8000144
:10137000185C2070002010BD10B50C46034603F029
:1013800066FC28B109A004F093F84FF0FF3010BDBF
:10139000D3F80421521CD01702EB106020F0FF009C
:1013A000101AC3F804011C54002010BD7175657536
:1013B000652069732066756C6C0A00002DE9F041A8
:1013C00016460D46074600240CE029783846FFF7FC
:1013D000D3FF002803DA4FF0FF30BDE8F081641C32
:1013E000A4B26D1CB442F0D30020F6E772B6FEE75B
:1013F00008B506480268001F0368001F00680090D7
:1014000003A1074804F064F8054808BDF0F7FF1F82
:10141000253038582530385825303858000000001D
:1014200094020020F8B500250446009590F82400A9
:1014300001280BD0012084F824002046FFF77CFD12
:101440002046FFF7A5FD060002D050E00220F8BDBF
:10145000A06A20F4885040F00200A062022001F04F
:101460004FFA25490968B1FBF0F0400000E0401E4A
:1014700000900028FBD12068816841F0080181605C
:1014800000F0FEFC074608E000F0FAFCC01B0A284A
:1014900003D920688068000715D420688068000799
:1014A000F2D42068816841F00401816000F0E8FC1A
:1014B000074612E000F0E4FCC01B0A280DD92068A2
:1014C0008068400709D5A06A20F0020040F01000B3
:1014D000A06284F824500120F8BD2068806840078D
:1014E000E8D4A06A20F0020040F00100A06284F875
:1014F00024503046F8BD000040000020F8B500241C
:10150000009490F824202546012A12D0012280F868
:1015100024204A681F23072A0DD20668776B521EC3
:1015200002EB820293409F430B6893401F43776313
:1015300019E00220F8BD06680D2A0AD2376BD21FC7
:1015400002EB820293409F430B6893401F43376333
:1015500009E0F76A0D3A02EB820293409F430B6861
:1015600093401F43F7620A68072306680A2A0AD3D2
:10157000F7680A3A02EB420293409F438B6893401C
:101580001F43F76008E0376902EB420293409F4334
:101590008B6893401F4337610A68102A01D0112AD3
:1015A00020D1124B02689A4217D193681B0219D4BA
:1015B000936843F4000393600968102912D10C4921
:1015C0000C4A0968B1FBF2F101EB8101490000E02E
:1015D000491E00910029FBD104E0816A41F02001FD
:1015E0008162012480F824502046F8BD0024014087
:1015F0004000002040420F000068C06C70470000AF
:101600002DE9F0414FF0000704003D467ED0A06A6E
:10161000002628B9E66284F82460204600F07EF8AF
:101620002046FFF789FCA16AC90600D420B1A06A50
:1016300040F01000A06269E0A16A21F4885141F0F5
:101640000201A1626268E169237B0A4347EA430120
:101650000A43A1684FF48077B94209D0012907D025
:101660005FF0000194F814C0BCF1010F02D00AE051
:101670003946F7E7F3B1A36A43F02003A362E36AB4
:1016800043F00103E3622368D3F804C02CF4694CEF
:101690004CEA010CC3F804C021688B68DFF870C005
:1016A00003EA0C0313438B60A168B9420BD00129F4
:1016B00009D00CE0DFF85CC0A3690CEB43330B43AB
:1016C00043F40061DFE7218A0D05A5F58015216847
:1016D000CB6A23F470032B43CB62216889680E4BDD
:1016E0001940914208D1E662A16A21F0020141F05D
:1016F0000101A162BDE8F081A06A20F0020040F083
:101700001000A062E06A40F00100E0620120F1E711
:10171000FDF7E1FF00E0FFFFFE0E1FFF00B585B003
:101720000021009101910291039100680E498842C5
:1017300018D10E48816941F400718161816901F419
:1017400000710491816941F00401816180696946F9
:1017500000F004000490022000900320019004484F
:1017600000F098FA05B000BD0024014000100240CE
:10177000000801402DE9F84300270D460446009774
:1017800000F07EFB804620688168C90508D5A06A04
:1017900040F02000A06284F824700120BDE8F883A6
:1017A0004168C90503D4C06A10F4700F2AD0022022
:1017B00001F0A6F83B490968B1FBF0F6206803691F
:1017C00039490B424FEA61014FEAA1121FD1C368A8
:1017D0004FEA611C13EA0C0F19D103690B4225D1A2
:1017E000C068104222D1142023E0681C0AD02DB119
:1017F00000F046FBA0EB0800A84203D9206800686F
:10180000800725D5206800688007EED52DE00369A4
:101810000B4202D1C168114206D0026923490A4233
:1018200006D1C068084203D1542002E0292000E01C
:10183000FC204643009816E0681C11D02DB100F042
:101840001FFBA0EB0800A8420AD90098B04207D2BB
:10185000A06A40F00400A06284F8247003209DE791
:101860000098401C0090B042E6D321686FF012004F
:101870000860A06A40F40070A06220688068C0F32D
:10188000424007280CD1207B50B9A06A20F4807018
:10189000A062A06AC00403D4A06A40F00100A06264
:1018A00000207BE740000020244992244992240034
:1018B00070B5044690F8240001280DD0012084F86A
:1018C00024002046FFF764FB02004FF0000005D023
:1018D00084F82400104670BD022070BDA16A40F259
:1018E0000123994341F48071A1621F4D23681F4970
:1018F000AB4218D10E6816F4702F14D0A66A46F4C5
:101900008016A6620E68760505D5A66A26F40056EE
:1019100046F48056A662A66AF6040AD5E66A26F060
:101920000606E66206E0A66A26F48016A6625E68EF
:10193000E9E7E06284F824006FF002001860206894
:101940008368C3F34243072B05D1A84208D1096835
:1019500011F4702F04D0816841F480118160B9E7DF
:10196000816841F4A001F9E7002801400424014006
:1019700010B590F821100022022905D004218163BE
:1019800080F82020012010BD01680B6823F00E03B1
:101990000B6001680B6823F001030B6090F8403086
:1019A000C46B012101FA03F3636080F8211080F811
:1019B0002020104610BD000010B590F82110002422
:1019C000022903D00421816301243DE001680A68F3
:1019D00022F00E020A6001680A6822F001020A6021
:1019E0001A4A0168914201D1012121E0174A1432BB
:1019F000914201D110211BE0144A2832914201D1B9
:101A0000891515E0114A3C32914201D189140FE049
:101A10000E4A5032914202D14FF4803108E00B4A15
:101A20006432914202D14FF4801101E04FF0807195
:101A3000064A083A5160012180F82110002180F8FF
:101A40002010416B01B18847204610BD08000240BC
:101A50002DE9F05FC16B0C6801680B68D0F840C0DD
:101A6000042202FA0CF2494DDFF824A1494E4A4FF4
:101A7000DFF828B1DFF828E122422CD05A072AD516
:101A80000A68920603D40A6822F004020A60016818
:101A9000A94201D1042219E0514501D1402215E0AB
:101AA000B14202D14FF4806210E0B94202D14FF44A
:101AB00080420BE0594502D14FF4802206E0714587
:101AC00002D14FF4800201E04FF080622F490839C3
:101AD0004A60C16A3BE04FF0020808FA0CF818EAC5
:101AE000040F4FF000094FF0010235D05FEA837810
:101AF00032D50B689B0605D40B6823F00A030B60F4
:101B000080F821200168A94201D1022219E0514543
:101B100001D1202215E0B14202D14FF4007210E051
:101B2000B94202D14FF400520BE0594502D14FF4B3
:101B3000003206E0714502D14FF4001201E04FF08F
:101B40000072124908394A6080F82090816A0029A1
:101B50001AD0BDE8F05F0847082505FA0CF52542C4
:101B600012D01B0710D50B6823F00E030B6090F802
:101B70004010C36B02FA01F15960826380F82120A2
:101B800080F82090016BE2E7BDE8F09F080002407A
:101B90001C00024030000240440002405800024055
:101BA0006C00024030B528B308C813491422194408
:101BB000B1FBF2F18900C1631049816302214177D1
:101BC0001A6843F6F0718A43D0E900142143D0E942
:101BD00002452C432143046921434469214384691C
:101BE00021431143196000214163012242770177AB
:101BF000084630BD012030BDF8FFFDBF00000240A7
:101C000070B5044690F82000002501280CD0012072
:101C100084F8200094F821600020012E06D084F87A
:101C200020000225284670BD022070BD022684F8DF
:101C30002160A0632068066826F001060660204641
:101C4000FFF76CFBE06A00282068016802D041F0D1
:101C50000E0106E021F0040101602068016841F0F6
:101C60000A0101602068016841F001010160D9E7C3
:101C700070B5044600F004F90546601C02D0044823
:101C80000078044400F0FCF8401BA042FAD370BD79
:101C9000340000202DE9F84FDFF8B8910024A9F1B5
:101CA000040B23460F2709F1040AABF1040EC9E027
:101CB0000125A5402A40AA427DD1674ED1F804C033
:101CC000ACEB0608B44532D014DCBCF1030F3AD0BB
:101CD00009DCBCF1000F2AD0BCF1010F1CD0BCF113
:101CE000020F31D11DE0BCF1110F17D0BCF1120F62
:101CF0002AD119E0B8F5881F19D006DCB8F5803F65
:101D000015D0B8F5801F1FD111E0B8F5001F0ED017
:101D1000B8F5041F18D10AE0CB6815E0CB681B1D8D
:101D200012E0CB6808330FE0CB680C330CE08B6813
:101D30002BB1012B4FF0080303D0456104E00423CD
:101D400002E0056100E00023FF2A01D8064601E019
:101D500000F104064FEA840501D9A5F12005D6F863
:101D6000008007FA05FC28EA0C0803FA05F548EAA2
:101D70000508C6F800804D68ED0062D5374DAE69A4
:101D800046F00106AE61AD6924F0030605F00105D9
:101D90000095334D06EB050CDCF80850A607360F0E
:101DA00007FA06F825EA0805DFF8B880404503D1B0
:101DB0004FF0000817E044E0DFF8AC80404502D166
:101DC0004FF001080FE0DFF8A480404502D14FF04A
:101DD000020808E0DFF89880404502D14FF0030880
:101DE00001E04FF0040808FA06F848EA0508CCF8C4
:101DF00008804D68D9F80060ED024D4601D51643C4
:101E000000E096432E604D68DAF80060AD0255465A
:101E100001D5164300E096432E604D68DBF8006064
:101E2000AD035D4601D5164300E096432E604D6834
:101E3000DEF80060ED03754601D5164300E09643D9
:101E40002E60641C0D682A46E5407FF431AFBDE882
:101E5000F88F00000804014000001110001002403B
:101E60000000014000080140000C0140001001404A
:101E7000001401400AB1016170470904FBE700004A
:101E800001488068704700003400002070B50400ED
:101E900025D094F83D00002520B984F83C50204618
:101EA00000F03CFC242084F83D002068016821F00B
:101EB000010101602068016841F40041016020686F
:101EC000016821F40041016000F098FE4D4A61680C
:101ED000914201D84C4900E04C49884201D201208E
:101EE00070BD4B492368B0FBF1F15E6826F03F06F8
:101EF0000E435E606368934206D94FF4967359436C
:101F00004FF47A73B1FBF3F12368491C1E6A26F083
:101F10003F06314319626168914210D84900401E62
:101F2000B0FBF1F2521CC2F30B02042A01D20420CE
:101F300022E0B0FBF1F0401CC0F30B001CE0A268F3
:101F4000F2B301EBC10303EB0116431EB3FBF6F33F
:101F50005B1C43F480431B0549D092B301EBC102E3
:101F600002EB0111401EB0FBF1F0401CC0F30B006E
:101F700040F4804040F400402168CA694CF6FF7389
:101F80009A431043C861D4E90710014320680268EE
:101F900022F0C00211430160D4E90301014320682B
:101FA000826848F2FF339A4311438160D4E9050106
:101FB00008432168CA6822F0FF021043C86001E0AC
:101FC0000EE016E02068016841F00101016025641F
:101FD000202084F83D00256384F83E50002070BD29
:101FE00001EB4106431EB3FBF6F35B1CB3E7012094
:101FF000C2E701EB4101401EB0FBF1F0401CC0F311
:102000000B00B7E7A086010080841E0000093D0098
:1020100040420F002DE9F84F0025DDF82890984642
:1020200017468A4604460095FFF72AFF064694F8AD
:102030003D0020287AD119230122864920460096A6
:1020400001F0A0FE0028F5D194F83C0001286DD0E5
:10205000012084F83C0020680168C90703D10168A9
:1020600041F0010101602068016821F40061016014
:10207000222084F83D00102084F83E002564676229
:10208000A4F82A80608D20857348E06233464A4672
:102090005146204601F0B4FC00287CD1208DDFF8A9
:1020A000BC81202768B1012814D00228206801686B
:1020B0001ED041F480610160206841698069009010
:1020C000BBE02068416981690091016841F40071B9
:1020D0000160B2E02068016821F48061016072B69D
:1020E0002068416981690091016841F400710AE04A
:1020F00041F40061016072B6206841698169009114
:10210000016821F48061016062B696E0032865D819
:1021100001280CD002284B464FF0000241462046D1
:1021200000960BD001F02EFEA8BB0CE090E03246EA
:102130004946204601F0CCFE68BB71E001F022FE6A
:1021400048BB72B633E02068016821F48061016009
:1021500072B620680069616A0870606A401C60623B
:10216000208D401E2085608D401E60853C4846F2D3
:10217000A8110068B0FBF1F0C0EBC00000EB8000DC
:102180000090401E009007D020684069C04340077F
:102190000DD50098F5E727E044F8305F6773A57325
:1021A000206940F02000206162B625731CE02068A1
:1021B000016841F40071016020680069616A08707B
:1021C000606A401C6062218D491E2185618D491E17
:1021D000618562B621680969017025E03246494689
:1021E000204601F075FE10B10120BDE8F88F20688F
:1021F0000069616A0870606A401C6062208D401E40
:1022000081B22185608D401E608520684269D2437D
:10221000520712D4032903D1016821F480610160BF
:1022200020680069616A0870606A401C6062208DE5
:10223000401E2085608D401E6085208D00287FF423
:1022400065AF84F83D7084F83E5084F83C50CCE78C
:102250000220CAE7020010000000FFFF0400010096
:10226000400000202DE9F84F1F4690468A4604465C
:10227000DDF82890FFF704FE054694F83D0020287D
:102280007FD11923012240492046009501F07AFDB3
:10229000002876D194F83C00012872D0012084F8FF
:1022A0003C0020680168C90703D1016841F00101C1
:1022B00001602068016821F400610160212084F838
:1022C0003D00102084F83E0000262664C4F82480D7
:1022D0006785608D20852D48E0622B464A46514631
:1022E000204601F003FC90B92068416980690090A4
:1022F00036E02A464946204601F022FE50B1206CC5
:10230000042804D12068016841F4007101600120B3
:10231000BDE8F88F606A216800780861606A401C37
:102320006062618D491E6185218D491E89B22185BA
:1023300022685369DB435B070BD451B1007810610D
:10234000606A401C6062608D401E6085208D401E6A
:1023500020852A464946204601F0E8FC0028CED1D7
:10236000208D0028C5D154F83D0B016841F400715F
:102370000160202004F81E09E67766770020C7E791
:10238000FFE70220C4E70000020010000000FFFF8A
:102390002DE9FF4F83B00025DDE910799A46934679
:1023A0000446DDF848800095FFF76AFD064694F87C
:1023B0003D0020287CD1192301228849204600961F
:1023C00001F0E0FC0028F5D194F83C0001286FD022
:1023D000012084F83C0020680168C90703D1016826
:1023E00041F0010101602068016821F40061016091
:1023F000222084F83D00402084F83E002564676276
:10240000A4F82A90608D20857548E062CDE90086A9
:1024100053465A462046049901F0B6FB00287CD169
:10242000208DDFF8C091202768B1012814D0022840
:10243000206801681ED041F4806101602068416914
:1024400080690090BCE02068416981690091016861
:1024500041F400710160B3E02068016821F48061FB
:10246000016072B62068416981690091016841F498
:1024700000710AE041F40061016072B620684169B0
:1024800081690091016821F48061016062B697E082
:10249000032865D801280CD0022843464FF00002DB
:1024A0004946204600960BD001F06CFCA8BB0CE01E
:1024B00091E032464146204601F00AFD68BB72E0D9
:1024C00001F060FC48BB72B633E02068016821F47B
:1024D0008061016072B620680069616A0870606A94
:1024E000401C6062208D401E2085608D401E6085EE
:1024F0003D4846F2A8110068B0FBF1F0C0EBC00007
:1025000000EB80000090401E009007D020684069DA
:10251000C04340070DD50098F5E727E044F8305F49
:102520006773A573206940F02000206162B62573AF
:102530001CE02068016841F40071016020680069B6
:10254000616A0870606A401C6062218D491E2185A5
:10255000618D491E618562B621680969017026E0B6
:1025600032464146204601F0B3FC18B1012007B0C5
:10257000BDE8F08F20680069616A0870606A401CDD
:102580006062208D401E81B22185608D401E608575
:1025900020684269D243520712D4032903D101684B
:1025A00021F48061016020680069616A0870606AD6
:1025B000401C6062208D401E2085608D401E60851D
:1025C000208D00287FF464AF84F83D7084F83E507D
:1025D00084F83C50CBE70220C9E70000020010005D
:1025E0000000FFFF04000100400000202DE9FF4F24
:1025F00083B09A46DDE9119793460446DDF84080A2
:10260000FFF73EFC054694F83D0020287FD11923B2
:10261000012240492046009501F0B4FB002876D104
:1026200094F83C00012872D0012084F83C00206816
:102630000168C90703D1016841F001010160206808
:10264000016821F400610160212084F83D004020F0
:1026500084F83E0000262664C4F82480A4F82A905A
:10266000608D20852C48E062CDE9007553465A46BE
:102670002046049901F006FB70B930E02A4639463D
:10268000204601F05DFC58B1206C042804D120687C
:10269000016841F400710160012007B0BDE8F08FCE
:1026A000606A216800780861606A401C6062218D60
:1026B000491E89B22185628D521E62852268536946
:1026C000DB435B070BD469B100781061606A401C82
:1026D0006062208D401E2085608D401E6085208DAB
:1026E0000028CBD12A463946204601F01FFB00289E
:1026F000CAD154F83D0B016841F4007101602020FB
:1027000004F81E09E67766770020C6E7FFE7022097
:10271000C3E70000020010000000FFFF10B586B004
:102720000021009101910291039100680F498842B4
:102730001AD10F4CA06940F00800A061A069694659
:1027400000F008000490C0200090122001900320A7
:1027500003900848FFF79EFAE06940F40010E0613A
:10276000E06900F40010049006B010BD0054004071
:1027700000100240000C01400248816802781144B8
:102780008160704734000020074810B5016841F0AF
:1027900010010160032000F0A1F80F2000F006F8FE
:1027A00000F04AF8002010BD0020024030B5054678
:1027B0001C4887B0816941F400618161806906A984
:1027C00000F40060009001A800F0F8F900F026FA8B
:1027D0001549164AB0FBF1F11548491E02604160E7
:1027E00040F2E7320021C0E903218160816100F0FD
:1027F00011FC040012D10E4800F06CFC04000DD155
:10280000192000F03DF8102D07D20022294619208A
:1028100000F044F80748056000E0012407B02046B6
:1028200030BD00000010024040420F00002C01406B
:10283000D80A0020380000200F4808B5816941F00F
:1028400001018161816901F001010091C16941F0DB
:102850008051C161C069002200F0805000900F21BA
:10286000901E00F01BF80548416821F0E06141F03E
:102870000071416008BD00000010024000000140EE
:10288000002809DB00F01F0201219140400980006F
:1028900000F1E020C0F8001170470000F0B40E4BCA
:1028A0001B680C46C3F30223C3F10705042D00D9AE
:1028B0000425191D072901D2002300E0DB1E012693
:1028C00006FA05F1491E214099409E40761E1640A9
:1028D0003143F0BC02F010BE0CED00E0064900F000
:1028E000070208684FF6FF03184040EA0220034A37
:1028F00010430860704700000CED00E00000FA058E
:1029000010B501460020234C012922D0022939D0DC
:1029100010291DD161682268D20119D51E48C1F362
:102920008342C903805C0AD561681B4AC1F34041F8
:10293000921E515C194AB2FBF1F1484301E018497B
:1029400048436168490203D440000321B0FBF1F021
:1029500010BD226AC2F30121012903D1920701D5DA
:10296000C80310BD022905D1626A920702D549F653
:10297000404010BD0329FCD121688903F9D54FF2ED
:10298000244010BD00F04AF96168C1F38131491C4F
:102990004900DBE7001002408486000800127A003C
:1029A00000093D002DE9F84305460078354CC00785
:1029B00054D0E0690026C00008D4E06940F080509F
:1029C000E061E069012600F0805000902E48016827
:1029D000C90512D40168804641F480710160FFF797
:1029E0004FFA074605E000BFFFF74AFAC01B64280C
:1029F00023D8D8F80000C005F6D5206A10F440703E
:102A000021D0A98801F4407181421CD0206A1F495D
:102A1000012220F440700A6000220A602062C00790
:102A200011D0FFF72DFA074641F2883808E000BFC1
:102A3000FFF726FAC11B414502D90320BDE8F88300
:102A4000206A8007F4D5206A696820F44070084342
:102A500020621EB1E06920F08050E0612878800794
:102A600005D56068A96820F4404008436060287874
:102A7000C00605D56068E96820F4800008436060FE
:102A80000020DBE70010024000700040400442429A
:102A90002DE9F0470F46050061D0434E306800F045
:102AA0000700B84209D2306820F007003843306090
:102AB000306800F00700B84251D128683B4C8107CC
:102AC00012D5400703D5606840F4E0606060287864
:102AD000000703D5606840F4605060606068A968D2
:102AE00020F0F000084360602878C00728D06868AC
:102AF000012810D02168022810D0890700292EDA79
:102B0000616821F0030101436160FFF7B9F9804674
:102B100041F288390DE021688903EFE78901EDE78B
:102B2000FFF7AEF9A0EB0801494502D90320BDE843
:102B3000F0876068696800F00C00B0EB810FEFD19E
:102B4000306800F00700B8420BD9306820F0070069
:102B500038433060306800F00700B84201D00120EF
:102B6000E5E72878400705D56068E96820F4E0606B
:102B7000084360602878000706D56068296920F45A
:102B8000605040EAC100606000F058F86168084A8F
:102B9000C1F30311515CC84006490860064800684B
:102BA000FFF704FE0020C2E70020024000100240B0
:102BB0009486000840000020380000200F220260A8
:102BC0000C4A536803F003034360536803F0F003B7
:102BD0008360536803F4E063C36052684FF4E063BA
:102BE00003EAD20202610448006800F007000860AE
:102BF00070470000001002400020024004480549D0
:102C000000684968044AC1F30221515CC84070471A
:102C10004000002000100240A48600080448054936
:102C200000684968044AC1F3C221515CC84070473A
:102C30004000002000100240A48600080E4A51689F
:102C40000E4801F00C03042B11D0082B0FD10C48B7
:102C5000C1F38343C903C05C0AD55168084AC1F374
:102C60004041921E515C054A5043B0FBF1F0704761
:102C700004494843704700000010024000127A00E7
:102C80007286000800093D002DE9F84F040070D05D
:102C90002078C04DC00749D06868C0F38100012882
:102CA00007D06868C0F38100022809D16868C003B2
:102CB00006D52868800339D560680028E7D035E05C
:102CC0006068B0F5803F0BD010B1B0F5A02F11D0E7
:102CD000286820F480302860286820F4802002E0F2
:102CE000286840F480302860606890B1FFF7C8F829
:102CF00006460AE0286840F480202860F0E700BF1C
:102D0000FFF7BEF8801B642873D828688003F7D5C6
:102D10000CE0FFF7B5F8064605E000BFFFF7B0F896
:102D2000801B6428F0D828688003F7D420789A4E56
:102D300080074FF001094FF0000839D5686810F09E
:102D40000C0F07D06868C0F38100022809D16868B9
:102D5000C00306D42868800714D52069012808D14B
:102D600010E02069B0B1C6F80090FFF789F8074677
:102D700005E00AE1FFF784F8C01B0228C4D82868E0
:102D80008007F7D52868616920F0F80040EAC100A3
:102D900028600DE0C6F80080FFF772F8074604E0EF
:102DA000FFF76EF8C01B022823D828688007F7D4E5
:102DB000207800072CD57948A169D9B1C0F80090D6
:102DC000FFF75EF8074604E0FFF75AF8C01B022839
:102DD0000FD8686A8007F7D571484FF4FA51006838
:102DE000B0FBF1F0009000BF0098411E0091FAD2B4
:102DF0000EE080E0C0F80080FFF742F8074604E0EC
:102E0000FFF73EF8C01B022875D8686A8007F7D420
:102E10002078400760D5E8690027C00008D4E86939
:102E200040F08050E861E869012700F08050009090
:102E30005C480168C90513D40168834641F4807178
:102E40000160FFF71DF8824606E000BFFFF718F8A3
:102E5000A0EB0A0064284ED8DBF80000C005F5D5C9
:102E6000E06801280AD008B1052813D0286A20F0AC
:102E700001002862286A20F0040002E0286A40F07D
:102E800001002862E06841F2883B98B1FEF7F8FF44
:102E900082460BE0286A40F004002862EEE700BF9B
:102EA000FEF7EEFFA0EB0A0159455AD8286A8007C1
:102EB000F6D50CE0FEF7E4FF824605E0FEF7E0FF02
:102EC000A0EB0A0159454CD8286A8007F6D41FB1F7
:102ED000E86920F08050E861E06988B36968C1F36F
:102EE0008101022944D00228C6F8608004D0FEF790
:102EF000C7FF044638E034E0FEF7C2FF074604E0AF
:102F0000FEF7BEFFC01B02282BD828688001F7D42B
:102F1000206AB0F5803F05D16868A16820F40030D0
:102F200008436860D4E908010843696821F4741112
:102F300008436860C6F86090FEF7A2FF044606E00A
:102F400025E000BFFEF79CFF001B022809D8286877
:102F50008001F7D51BE000BFFEF792FF001B02289F
:102F600002D90320BDE8F88F28688001F4D40EE070
:102F70000128F7D06868226A00F48031914204D1B8
:102F8000616A00F47010884201D00120EAE7002055
:102F9000E8E7000000100240000042428004424284
:102FA00040000020007000407047704770B590F8F6
:102FB0003C20012A26D0012480F83C40022280F8DF
:102FC0003D2003685A689D6822F070060A68324303
:102FD0005A600D4B02689A4208D0B2F1804F05D07A
:102FE0000A4B9A4202D00A4B9A4204D1496825F012
:102FF00080031943916080F83D40002180F83C1027
:10300000084670BD022070BD002C01400004004045
:103010000008004010B5040003D094F83D0010B142
:1030200007E0012010BD002084F83C00204600F09D
:103030001FF8022084F83D00211D206801F0AEFE3B
:10304000012084F8460084F83E0084F83F0084F8AC
:10305000400084F8410084F8420084F8430084F87A
:10306000440084F8450084F83D00002010BD0000B5
:1030700008B5154A0168154891420ED1C16941F061
:103080000201C161C069002200F002000090052128
:103090001D20FFF703FC1D2010E00D4A914211D1C5
:1030A000C16941F00401C161C069002200F004005F
:1030B000009005211E20FFF7F1FB1E20BDE808400F
:1030C000FFF7DEBB08BD0000000400400010024016
:1030D0000008004090F83D10012901D00120704700
:1030E000022180F83D100168CA6842F00102CA60FE
:1030F00000680B49884208D0B0F1804F05D00949DB
:10310000884202D00849884204D1816801F0070151
:10311000062903D0016841F00101016000207047D9
:10312000002C0140000400400008004001680A6AC9
:1031300041F211131A4207D10A6A9B101A4203D1B5
:103140000A6822F001020A60012180F83D10002087
:10315000704770B5044690F83C000025012817D050
:10316000012684F83C60022084F83D0020688268D3
:1031700022F0770222F47F4282600868502838D01B
:103180000DDC20284FD005DC90B3102811D14AE087
:10319000022070BD302846D040280AD13BE060288C
:1031A0002FD070280DD0B0F5805F03D0B0F5005F50
:1031B00012D0012584F83D60002084F83C002846A8
:1031C00070BDCB68D1E90121206801F023FE2068A1
:1031D000816841F0770109E0CB68D1E901212068DD
:1031E00001F018FE2068816841F480418160E1E7C8
:1031F00019E0CA684968206801F01EFE5021206865
:1032000006E0CA684968206801F027FE602120684E
:1032100001F00AFECEE7CA684968206801F00CFE9A
:1032200040212068F4E7226801461046F0E7704725
:103230002DE9F04104460068C66805694FF00007B3
:10324000A90713D5B10711D5F91E01610120207717
:10325000206880698007204602D0FFF7E8FF04E07D
:1032600000F07EF8204600F07CF82777680716D536
:10327000700714D521686FF00400086102202077E0
:103280002068806910F4407F204602D0FFF7CFFF0E
:1032900004E000F065F8204600F063F8277728077F
:1032A00015D5300713D521686FF008000861042098
:1032B00020772068C0698007204602D0FFF7B7FF5B
:1032C00004E000F04DF8204600F04BF82777E806C0
:1032D00016D5F00614D521686FF01000086108209B
:1032E00020772068C06910F4407F204602D0FFF7A5
:1032F0009EFF04E000F034F8204600F032F8277713
:10330000E80708D0F00706D021686FF001000861D7
:10331000204600F027F8280608D5300606D5216893
:103320006FF0800008612046FFF73EFE680608D572
:10333000700606D521686FF040000861204600F055
:1033400047F8A8060AD5B00608D521686FF0200016
:1033500008612046BDE8F041FFF727BEBDE8F081D7
:103360007047704770B504460068114DA84201D1FE
:10337000FFF702FA2268AA420DD10E48012303701A
:103380000D480168491C0160B1F5FA7F03D30021A3
:1033900001600A4803700A48824207D10948FFF7D2
:1033A000C5FE094801F0FCFF0849087070BD000027
:1033B000002C01401C000020240000201F000020E1
:1033C00000080040740800208C010020210000202B
:1033D0007047704710B504460068406994F8411082
:1033E000C0F3C010212911D180B12068143050E8F9
:1033F000001F21F0800140E80012002AF5D1A06BE7
:1034000008B1FEF7B5FA204601F0F2FD20684069E8
:1034100094F84210C0F38010222911D180B12068A5
:10342000143050E8001F21F0400140E80012002A4B
:10343000F5D1E06B08B1FEF79BFA204601F0B1FD33
:10344000002010BD70470000F8B501680446086808
:10345000CA684B6910F00F0F4FF0000559D003F008
:10346000010602F49077374365D0C10705D0D10536
:1034700003D5616C41F001016164410705D5D907AD
:1034800003D0616C41F002016164810705D5D90761
:1034900003D0616C41F004016164010707D502F0BB
:1034A0002001314303D0616C41F008016164616C1B
:1034B00000293AD0800604D5900602D5204601F0B6
:1034C000A5FD20684069616CC0F38010090700D435
:1034D00060B3204601F065FD20684069400621D5B3
:1034E0002068143050E8001F21F0400140E800122D
:1034F000002AF5D1E06BA8B16D494163E06BFEF79E
:103500005BFA002811D0E06B416B01B0BDE8F040E0
:10351000084783060FD593060DD52046BDE8F84031
:1035200001F074BD2046FFF78DFFF8BD2046FFF780
:1035300089FF6564F8BD266B2023012E7CD1C60669
:103540007AD5D60678D508684868009048694FF063
:103550000206400640D5E16B086840680004000C94
:10356000E8D0A28D8242E5D9E085886920282DD057
:1035700020680C3050E8001F21F4807140E80012F0
:10358000002AF5D12068143050E8001F21F0010115
:1035900040E80012002AF5D12068143050E8001FDE
:1035A00021F0400140E80012002AF5D184F84230B1
:1035B000256320680C3050E8001F21F0100140E81E
:1035C0000012002AF5D1E06BFEF7D2F96663A08DF8
:1035D000E18D401A81B22AE0A08DE18D401A81B2BE
:1035E000E08D0028A6D00029A4D022680C3252E831
:1035F000000F20F4907042E80007002FF5D12068FA
:10360000143050E8002F22F0010240E80027002F7C
:10361000F5D184F84230256320680C3050E8002F43
:1036200022F0100240E80023002BF5D1666320460B
:10363000FFF7CFFEF8BDFFE705062BD5150629D508
:1036400094F841002128F5D1A068B0F5805F01D140
:103650002069B0B1206A411C21622168007848606D
:10366000E08C401E0004000CE084E3D12068C168B7
:1036700021F08001C1602068C16841F04001C16053
:10368000D8E7206A0088C0F308004860206A801CE0
:103690002062E5E74006CDD55006CBD5CA68204666
:1036A00022F04002CA6084F8413000F08FF9C1E78F
:1036B000A54E000870B5040004D094F84100002520
:1036C00010B106E0012070BD84F84050204600F0A3
:1036D00023F8242084F841002068C16821F40051B7
:1036E000C160204601F0F4FC2068016921F490419A
:1036F00001612068416921F02A0141612068C168A7
:1037000041F40051C1606564202084F8410084F8D0
:1037100042006563002070BDF0B585B000240094C0
:10372000019402940394054603684C48DFF828C1CD
:10373000022103224A4E0715634520D1836943F4D1
:1037400080438361836903F480430493836943F076
:10375000040383618069039200F00400049008026E
:10376000CDE9000169463046FEF794FACDE90074D0
:10377000694630460294FEF78DFA05B0F0BDDFF8D9
:10378000E4C0634526D1C36943F40033C361C36910
:1037900003F400330493836943F004038361806975
:1037A000039200F0040004900420CDE90001694672
:1037B0003046FEF76FFA0820CDE90004694630462E
:1037C0000294FEF767FA002205212620FFF766F82B
:1037D00026203DE0244EB342CFD1C36943F4802379
:1037E000C361C36903F480230493836943F008032E
:1037F00083618069CDE9007100F00800CDE9032004
:103800001A4E69463046FEF745FAF014CDE9000439
:10381000694630460294FEF73DFA164E1448C6E952
:1038200000048020C6E9024020203461C6E905403A
:103830000002F0613046FEF7B5F908B1FDF7D6FD9C
:10384000EE630022052127207562FFF727F8272065
:10385000FFF716F891E70000003801400010024021
:10386000000801400044004000480040000C0140B6
:1038700030000240940A002090F84230202B01D002
:103880000220704721B11AB10023036301F07CBC10
:103890000120704710B50068094988420FD1094CD2
:1038A00020784142CAB2084901440848FDF786FD24
:1038B000002802DA06A001F0FBFD0020207010BDF8
:1038C0000048004030000020BC0800208C0100208F
:1038D0004649464F2046756C6C0A000070B500687A
:1038E0000B49884212D10B4D2878C0F18001CCB22F
:1038F0000949224601440948FDF760FD002802DA23
:1039000007A001F0D5FD28782044287070BD000084
:103910000048004030000020BC0800208C0100203E
:103920004649464F2046756C6C0A00002DE9F84365
:10393000044690F84100984616460D46202802D0CD
:103940000220BDE8F88385B17EB1002060642120AB
:1039500084F84100FEF794FAA6848146E684A068C4
:103960002027B0F5805F02D003E00120E9E720695D
:1039700010B12E4600250EE000260CE080212046E6
:1039800001F04AFCA8B9C6B116F8010B21684860DD
:10399000E08C401EE084E08C4B464FF00002CDF8F6
:1039A00000800028EAD14FF04001204601F034FCAD
:1039B00040B184F841700320C3E735F8020BC0F32F
:1039C0000800E3E784F841700020BAE77047FEE79B
:1039D00001684A69D24352050FD46FF480624A618C
:1039E000002140F8301F202242738173026942F0A7
:1039F000040202610173012070470020704700003B
:103A00002DE9F84F0446C06A1E4693460D462168CC
:103A10000A6842F480620A60082807D0012805D0AD
:103A200010F5803F02D0206B112804D12068016876
:103A300041F4807101604FF001195B460022494654
:103A40002046009600F09EF94FF4007840B12068BF
:103A50000068C00501D5C4F840800320BDE8F88F98
:103A60002069DFF884A0B0F5804F0FD006202168D0
:103A700000EAD51747F0F000086133465A460AF1CC
:103A80000601204600F0C6F958BB03E0E8B240F05A
:103A900001001CE02168E8B2086133465A465146ED
:103AA000204600F0B7F9E0B92068416981690091CA
:103AB000016841F4807101605B460022494620465E
:103AC000009600F05FF90028C1D147F0F1002168AD
:103AD000086133465A465146204600F09BF90028BB
:103AE000BCD00120BAE7000002000100F8B504468E
:103AF000C06A1E460D461746082807D0012805D083
:103B000010F5803F02D0206B122804D12068016894
:103B100041F480710160134600224FF001112046EC
:103B2000009600F02FF940B120680068C00502D56A
:103B30004FF4007020640320F8BD2069B0F5804F79
:103B40000ED00620216800EAD51040F0F000086190
:103B500033463A460B49204600F05CF978B902E05A
:103B600005F0FE0000E0E8B221680861054933462F
:103B70003A46891F204600F04DF90028DCD001208C
:103B8000F8BD0000080001002DE9F84F0446006868
:103B900089460B9D01689846174641F48061016093
:103BA0002068016841F48071016000954FF0011BAD
:103BB0000022594620460A9B00F0E4F84FF4007AB0
:103BC00040B120680068C00501D5C4F840A00320BA
:103BD000BDE8F88F216809F0FE0008612B462849EE
:103BE00020460A9A00F016F9F0BB20684169806906
:103BF00000902A4620460A9900F0A2F940B1206CB4
:103C000004283AD12068016841F40071016034E071
:103C1000FEB2B8F1010F09D02168380A08612A46BE
:103C200020460A9900F08CF90028E8D12068066146
:103C30002A4620460A9900F083F90028DFD120683F
:103C4000016841F4807101600095002259462046C8
:103C50000A9B00F097F80028B3D1216809F0FF0013
:103C600040F00100086100E007E02B4604492046CF
:103C70000A9A00F0CFF80028AAD00120A8E7000097
:103C8000020001002DE9F843044600680D46DDE915
:103C9000089701689846164641F4807101604B46CA
:103CA00000224FF001112046009700F06BF848B158
:103CB00020680068C00502D54FF40070206403201E
:103CC000BDE8F883216805F0FE0008613B464A46DE
:103CD0001549204600F09EF888B92068416980693E
:103CE00000903A464946204600F02AF948B1206C37
:103CF000042804D12068016841F4007101600120AA
:103D0000DEE7F5B2B8F1010F09D02168300A086189
:103D10003A464946204600F013F90028E7D12068CA
:103D200005610020CCE700000200010070B51646D6
:103D30000D4604461EE02046FFF74AFE08B101206A
:103D400070BD681C16D0FEF79BF8801BA84200D8F7
:103D500085B920684069C04340070BD5002044F86E
:103D6000300F20216173A073216941F0200121618E
:103D70002073E4E720684069C0434007DBD400209B
:103D800070BD00002DE9F047984617460D460446E1
:103D9000C1F30746DDF820902AE000BFB8F1FF3FED
:103DA00026D0FEF76DF8A0EB0901414502D8B8F125
:103DB000000F1DD12068012E16D0806925EA000071
:103DC0000004000C12D00020B84211D1002044F8A9
:103DD000300F20216173A073216941F0200121611E
:103DE00020730120BDE8F0874069E7E70120EBE799
:103DF0002068012E0AD0806925EA00000004000C2A
:103E000006D00020B842C9D00020EBE74069F3E7B4
:103E10000120F7E72DE9F047984616460D4604467F
:103E20004FF000094FF0200AC1F3074723E0206854
:103E30004069C043400515D42068016841F4007111
:103E4000016021686FF480604861C4F8309084F8A4
:103E50003DA084F83E90216C41F00401216484F877
:103E60003C9021E0701C06D0FEF70AF8A0EB080099
:103E7000B04203D816B1012F1FD021E02068012FD6
:103E800015D0806925EA00000004000C18D000BF9E
:103E900044F8309F84F80DA084F80E90216941F019
:103EA0002001216184F80C900120BDE8F087406971
:103EB00025EA00000004000CEAD12068406901E016
:103EC0002068806925EA00000004000CAFD1ECE70F
:103ED0002DE9F041002590460E460446202728E0B3
:103EE0004069C043C0060CD454F8301B6FF010007A
:103EF000486144F810596777A577206A20622577D2
:103F000014E0FDF7BDFFA0EB0800B04200D886B971
:103F100020684069C04340060BD544F8305F6773A2
:103F2000A573206940F02000206125730120BDE8C1
:103F3000F08120684169C9434906D1D40020F6E7E1
:103F400070B516460D4604461EE02046FFF740FDBC
:103F500008B1012070BD681C16D0FDF791FF801BD1
:103F6000A84200D885B920684069C04300060BD537
:103F7000002044F8300F20216173A073216941F0C3
:103F8000200121612073E4E720684069C0430006F6
:103F9000DBD4002070BD00007CB500258DF80450F6
:103FA00047208DF80500FF248DF80640032301AA61
:103FB00082210B480094FEF755F90520FDF758FEC5
:103FC00005208DF8040014208DF805008DF80650AA
:103FD000032301AA822102480094FEF743F97CBD25
:103FE000D807002070B500F059F8064600F03AF8FE
:103FF000044600F06FF805463046FCF726FD1349ED
:10400000FCF714FB06462046FCF71FFD1049FCF7A1
:104010000DFB1049FCF73CFB04462846FCF715FD58
:104020000D49FCF703FB05460C492046FCF7FEFA58
:10403000FCF71DFD0A4CE0803046FCF718FD20819E
:104040002846FCF714FD608170BD0000CDCCCC3D4E
:104050000000A03F00007A44000020400000C84259
:10406000400C00203EB50BA0FF2400680290012305
:1040700002AA822100940848FEF7F4F8022301AA5C
:10408000822105480094FDF7C5FFBDF8040040BA41
:104090003EBD000002000000D80700203EB50BA086
:1040A000FF2400680290012302AA8221009408489C
:1040B000FEF7D8F8022301AA822105480094FDF7F3
:1040C000A9FFBDF8040040BA3EBD00000400000096
:1040D000D80700203EB50BA0FF2400680290012302
:1040E00002AA822100940848FEF7BCF8022301AA24
:1040F000822105480094FDF78DFFBDF8040040BA09
:104100003EBD000003000000D80700200A4B012834
:1041100008D002280ED1C001012906D0002909D1FA
:10412000012203E04FF40070F6E700220146184632
:10413000FDF7A0BE70470000000C014070B590B0C4
:1041400040216846FCF76BF8022367A20421002097
:1041500000F0FEFCFDF74CF9014668A001F0A8F95B
:1041600069A16B48FCF79AF86A4C002626706AA190
:10417000684601F0ADF96846FCF76EF882B24FF47C
:104180007A752B4669466A48FFF7D0FB284600F04F
:1041900077FE02287ED02670FDF72AF9024665A137
:1041A000684601F095F96846FCF756F882B22B464E
:1041B00069465F48FFF7BAFB284600F061FE022817
:1041C000E8D026705FA16846FCF768F86846FCF7FF
:1041D00043F882B22B4669465548FFF7A7FB41F2E8
:1041E000883000F04DFE022874D02670FDF700F9EB
:1041F00002465DA1684601F06BF96846FCF72CF8B1
:1042000082B22B4669464A48FFF790FB284600F0E9
:1042100037FE02285ED02670FDF7EAF802465CA160
:10422000684601F055F96846FCF716F882B22B464D
:1042300069463F48FFF77AFB284600F021FE022836
:1042400048D02670FDF7D4F802465DA1684601F01B
:104250003FF96846FCF700F882B22B4669463448BD
:10426000FFF764FB284600F00BFE022832D02670D0
:104270005EA1684601F02CF96846FBF7EDFF82B2BB
:104280002B4669462A48FFF751FB284600F0F8FD07
:10429000022800E01EE01DD0267058A1684601F0FB
:1042A00017F959A11A48FBF7F9FF6846FBF7D4FF45
:1042B00082B22B4669461E48FFF738FB564800F08D
:1042C000DFFD01284FF0020307D007A204210020E0
:1042D00000F03EFC002010B070BD50A20421002070
:1042E00000F036FC0120F6E74D51545453657276C8
:1042F00065722E2E2E202D2D000000006370756932
:10430000643A25730A0000004F4B0D0A00000000BC
:10431000330400202100002041542B4454555441C3
:10432000534B3D2231222C223230220D0A00000054
:104330004C0A002041542B4D5154543D22257322E8
:104340000D0A000041542B4D51545449503D2262F6
:10435000726F6B65722E656D71782E696F222C22DB
:1043600031383833220D0A0041542B4D51545453E7
:1043700055423D302C2253544D333256392F446F21
:10438000776E4C6F61642F2573222C300D0A00006C
:1043900041542B4D515355423D2231222C22312282
:1043A0002C2234222C2253544D333256392F446F51
:1043B000776E4C6F61642F2573220D0A0000000098
:1043C00041542B4D515055423D2231222C22312255
:1043D0002C2234222C2253544D333256392F55502F
:1043E0004C6F61642F2573220D0A000041542B4D40
:1043F000514D554C54454E3D300D0A0041542B5201
:104400004553540D0A0000004D5154545F434F4E24
:104410004E4543543A00000020BF02004D51545411
:104420005365727665722E2E2E204F4B00000000D1
:1044300000F008F841F2883400F090F8204602F0CD
:10444000EDFAF9E710B5FFF779FE012804D1034929
:10445000087003A001F02CF8012010BD20000020FE
:104460004D51545420E69C8DE58AA1E599A8E8BFFA
:104470009EE68EA5E68890E58A9FEFBC81EFBC8121
:10448000EFBC810A000000002DE9F04101F04AFD77
:10449000040038D024A101F037FD074624A12046AE
:1044A00001F032FD064624A1204601F02DFD05460F
:1044B00023A1204601F028FD23497A692AB1012A67
:1044C0000A8825D022F001020A8072692AB1012AE5
:1044D0000A8820D022F002020A806A692AB1012AE1
:1044E0000A881BD022F004020A80406928B1012802
:1044F000088816D020F008000880204601F0DCFC77
:104500000120BDE8F08111A000F0D2FF0020F8E703
:1045100042F00102D8E742F00202DDE742F0040275
:10452000E2E740F00800E7E74C45443100000000B6
:104530004C45443200000000424545500000000058
:1045400052454C4159000000400C002070617273CC
:1045500065206661696C2E0A0000000010B51648DF
:1045600086B00DF1040C0189C489838942898CE8E5
:104570001E00C18800918388428810A11E4800F067
:10458000A7FF1D4A1DA102F1800000F0A1FF1A49FA
:104590001AA0803100F08CFF17488030FBF75CFEDA
:1045A000154982B24FF47A7380311548FFF7BEF98E
:1045B00006B0012010BD0000400C00207B225450AA
:1045C000223A25642C225248223A25642C22564F46
:1045D000223A25642C224355223A25642C22505736
:1045E000223A25642C225652223A25642C2243502A
:1045F00055223A25647D0000B40200202573000096
:104600004C0A00203EB50021124800910191104A49
:104610000291026081600173017501244FF46022F0
:104620000461C2614160FCF7EBFF08B1FCF7DEFEFC
:104630001020CDE900040720029069460548FCF7E8
:104640005DFF08B1FCF7D2FE0248FCF7EBFE3EBD71
:1046500000240140A8070020094808B5416941F03D
:10466000010141614069002200F001000090052134
:104670000D20FEF713F9BDE808400D20FEF700B944
:104680000010024010B58EB01C220B496846FBF7A3
:10469000ADFD0021684602F0CDF9084C06491C2208
:1046A00020601C3107A8FBF7A1FD002107A802F03C
:1046B000C1F960600EB010BD3886000828000020E7
:1046C0002DE9F04186B000242C4800940194029416
:1046D0000394816941F010018161816901F0100149
:1046E0000491816941F020018161816901F020011B
:1046F0000491816941F004018161816901F0040143
:104700000491816941F00801816180691C4F00F0CA
:1047100008004FF400550490002229463846FDF762
:10472000A9FBDFF86080002206214046FDF7A2FBCE
:1047300001224FF440714046FDF79CFB0095022694
:1047400001250396CDE9015469463846FDF7A2FAE2
:1047500040F20230CDE90005CDE902466946404607
:10476000FDF798FA0420CDE9000569464046CDE9F9
:104770000245FDF78FFA06B0BDE8F0810010024057
:1047800000100140000C01400D4810B50B490160BC
:104790000C49416000214FF480428160C0E903125E
:1047A00041618161C1610162FDF770FB002803D0A6
:1047B000BDE81040FCF71ABE10BD000000540040D8
:1047C000D8070020A086010010B586B00024174845
:1047D0000094019402940394049413490594016095
:1047E00040F60F61C0E901146421C0E9031480217F
:1047F0008161FEF70FFC08B1FCF7F8FD4FF4805023
:10480000009069460948FEF7A4FC08B1FCF7EEFDEC
:10481000049404A905480594FEF7C8FB002801D0BC
:10482000FCF7E4FD06B010BD000400402C08002099
:1048300010B586B0002417480094019402940394A4
:10484000049413490594016041F61F41C0E9011425
:104850006421C0E903148461FEF7DCFB08B1FCF7B6
:10486000C5FD4FF48050009069460A48FEF771FC80
:1048700008B1FCF7BBFD049404A906480594FEF7B3
:1048800095FB002801D0FCF7B1FD06B010BD00007B
:1048900000080040740800200C4810B50A49016067
:1048A0004FF4E1314160002181600C22C160C0E918
:1048B00004128161C161FEF7FDFE002803D0BDE84E
:1048C0001040FCF793BD10BD00380140BC0900202A
:1048D0000C4810B50A4901604FF4E13141600021F4
:1048E00081600C22C160C0E904128161C161FEF7E0
:1048F000E1FE002803D0BDE81040FCF777BD10BDF5
:1049000000440040040A00200C4810B50A49016028
:104910004FF4E1314160002181600C22C160C0E9A7
:1049200004128161C161FEF7C5FE002803D0BDE815
:104930001040FCF75BBD10BD004800404C0A002051
:10494000FEE701F0B9FD00F02FF80A2002F066F84A
:10495000F7E700001CB50C49002000F099F90A4C5B
:104960000AA0641E617800F0A3FD00200121CDE9BA
:1049700000014FF4E1330246617801F05BFDBDE8D0
:104980001C4001F073BB00001D00002052656164F3
:104990005F536C61766541646472657373206973FB
:1049A0002025640A0000000070B5204C2078002605
:1049B00030B12670FCF7F0FBFFF714FBFCF726FB89
:1049C000A0781B4D70B1A670A97C6170002000F02A
:1049D0005BFD0A20FDF74CF901F038FB01F026FBE6
:1049E000FFF7B8FF2878C00701D0012100E00021BF
:1049F0000120FFF78BFB2878800701D5012100E01B
:104A000000210220FFF782FB2878400701D5012012
:104A100000E00020FCF76AFC2878000701D501209F
:104A200000E00020BDE8704000F022B91C0000202A
:104A3000400C0020FEE70020AFF3008070B5064672
:104A40005FF0000404F1B000C0B200F0F9FC0020F7
:104A500000F0F6FC102000F0F3FC0025304600F0DA
:104A600001FD6D1CEDB2802DF8D3641CE4B2082C5E
:104A7000E8D370BD10B50120FDF7FAF8AE2000F0C4
:104A8000DFFC202000F0DCFC102000F0D9FCB0207E
:104A900000F0D6FCC82000F0D3FC002000F0D0FCD1
:104AA000102000F0CDFC402000F0CAFC812000F076
:104AB000C7FCFF2000F0C4FCA12000F0C1FCA62030
:104AC00000F0BEFCA82000F0BBFC3F2000F0B8FCCA
:104AD000A42000F0B5FCD32000F0B2FC002000F0D0
:104AE000AFFCD52000F0ACFCF02000F0A9FCD920F0
:104AF00000F0A6FC222000F0A3FCDA2000F0A0FCCD
:104B0000122000F09DFCDB2000F09AFC202000F039
:104B100097FC8D2000F094FC142000F091FCBDE87F
:104B20001040AF2000F08CBC10B50446B031C8B2C4
:104B300000F086FC102040EA141000F081FC04F024
:104B40000F00BDE8104040F0010000F079BC00000B
:104B50002DE9F047002591468A460446012B22D0D4
:104B6000DFF8BC80022B24D155E02038C7B27E2C60
:104B700004D90AF10100002400F0FF0A5146204642
:104B8000FFF7D2FF07EB4700002608EB4007B85DB0
:104B900000F068FC761CF6B2062EF8D3A41D6D1C3E
:104BA000E4B2EDB201E0DFF87C8019F805000028DE
:104BB000DBD1BDE8F0872038C7B2782C04D90AF1E0
:104BC0000100002400F0FF0A51462046FFF7ACFF29
:104BD0005FF0000606EB071118F8010000F042FC38
:104BE000761CF6B2082EF5D30AF10100C1B22046B8
:104BF000FFF79AFF5FF0000606EB071101EB0800D4
:104C0000007A00F02FFC761CF6B2082EF4D308349C
:104C10006D1CE4B2EDB219F805000028CBD1C8E74D
:104C200048800008207E000810B5FF21C0F804115C
:104C3000C0F80011491CFBF7F2FA002010BDD0E9C2
:104C40004010814201D10120704700207047D0F808
:104C50000411D0F80001491CCA1701EB126222F0BE
:104C6000FF02891A814201D101207047002070475C
:104C7000064B012806D0002806D100220221184642
:104C8000FDF7F8B80122F9E770470000000C014079
:104C90003EB50C4601254FF47A710094CDE90151DF
:104CA00002462B46A1210448FDF772FB207800B98B
:104CB000257001203EBD0000D807002010B550200F
:104CC00080F31188BFF34F8FBFF36F8F02F0E0FFC7
:104CD00018B104494FF080500860002080F311881B
:104CE00010BD000004ED00E030B593B02821684607
:104CF000FBF795FA14210AA8FBF791FA0025012089
:104D00000F9510951195010412958DE823000490DC
:104D10004FF4E010CDE90810022407946846FDF72F
:104D2000B3FF08B172B6FEE70AA90F2081E831008F
:104D30004FF48060CDE90D0502210AA8FDF7A8FE19
:104D400008B172B6FEE74FF4004011900F940FA81F
:104D5000FDF728FE002801D072B6FEE713B030BD83
:104D6000704700000148FEF763BA0000D80A00202F
:104D7000054800680169C90705D06FF001010161AC
:104D800002480068004770472C0800206C00002093
:104D90000148FEF74DBA000074080020F0B5026823
:104DA000194B1A4C1A4D4FF08047984205D0B84223
:104DB00003D0A04201D0A84203D122F070064A6875
:104DC0003243984205D0B84203D0A04201D0A84255
:104DD00003D122F44074CA6822434C6922F0800255
:104DE000224302608A68C2620A688262984201D1E4
:104DF00009690163012141610169C90703D00169A2
:104E000021F001010161F0BD002C014000040040CF
:104E10000008004010B5846842EA032224F47F446D
:104E20000A432243826010BD826822F070020A4366
:104E300042F007018160704710B5036A046A24F0EC
:104E400001040462846924F0F00444EA021423F0AB
:104E50000A020A438461026210BD10B5036A046A43
:104E600024F010040462846923F0A00324F4704445
:104E700044EA023243EA01118261016210BD00007E
:104E800070B50546064C05E028466D1E06D3012088
:104E9000FCF7EEFE20780028F6D0207870BD0000E8
:104EA0002100002010B5406A0021C185C184FEF7B1
:104EB000C9FA10BD70B5446A2068406994F8411081
:104EC000C0F3C0100025212904D118B1E584204683
:104ED00000F08EF82068406994F84210C0F380100A
:104EE000222904D118B1E585204600F05AF8606CFB
:104EF00040F0100060642046FEF7A4FA70BD10B5C3
:104F00000146406A096809684FF0000289062ED4FC
:104F1000C28501680C3151E8003F23F4807341E8F9
:104F20000034002CF5D10168143151E8003F23F022
:104F3000010341E80034002CF5D10168143151E837
:104F4000003F23F0400341E80034002CF5D120213C
:104F500080F84210016B012909D101680C3151E838
:104F6000003F23F0100341E80034002CF5D14263E8
:104F7000016B012902D0FEF78DFC10BD818DFEF77B
:104F800028FA10BD10B5406A01214163016B012967
:104F900002D0FEF7A3FC10BD818D4908FEF719FA77
:104FA00010BD01680C3151E8002F22F4907241E8E5
:104FB0000023002BF5D10168143151E8002F22F0B5
:104FC000010241E80023002BF5D1016B012909D131
:104FD00001680C3151E8002F22F0100241E8002353
:104FE000002BF5D1202180F8421000210163704789
:104FF00001680C3151E8002F22F0C00241E8002383
:10500000002BF5D1202180F84110704708B590F8A9
:105010004210222901D0022008BD82684FF480533B
:105020009A4201D1016921B1816A9A421BD04AB1E9
:105030000AE00268816A5268C2F308020A80816A43
:10504000891C08E0026972B10268526802F07F02AE
:105050000A70816A491C8162C18D491E0904090CCC
:10506000C18503D01BE002685268F1E70168CA6895
:1050700022F02002CA600168CA6822F48072CA6005
:1050800001684A6922F001024A61202180F8421039
:1050900000214163026B012A03D0FEF7FBFB0020D5
:1050A00008BD016301680C3151E8002F22F01002A5
:1050B00041E80023002BF5D101680A68D20602D529
:1050C0000A6849680091818DFEF783F9E7E70000DF
:1050D00070B5044600680169E26821F4405111434B
:1050E00001612169A0680843616908432168CA68B1
:1050F00041F20C639A430243CA6020684169A26985
:1051000021F44071114341611E492068884202D157
:10511000FDF784FD01E0FDF771FD00EBC00101EB3F
:105120000012606864218000B2FBF0F3B3FBF1F37E
:105130006FF018067343B2FBF0F5B2FBF0F605EB27
:105140008305322303EB0515B5FBF1F5B6FBF1F64C
:1051500005F0F00505EB0615B2FBF0F6B2FBF0F03A
:10516000B0FBF1F06FF01802504306EB800003EB48
:105170000010B0FBF1F0216800F00F0028448860B7
:1051800070BD00000038014038B581620446828558
:10519000002013466064222284F84220E56B1B4AFB
:1051A000AA62E56B1A4AEA62E56B1A4A2A63E26B65
:1051B00050630A462168E06B091DFCF721FD206859
:1051C000016840680090206948B120680C3050E8C0
:1051D000001F41F4807140E80012002AF5D12068D8
:1051E000143050E8001F41F0010140E80012002A8D
:1051F000F5D12068143050E8001F41F0400140E82C
:105200000012002AF5D1002038BD0000FF4E000832
:10521000854F0008B54E00082DE9F843984617461B
:105220000D460446089E24E0701C22D0FCF728FEA0
:10523000A0EB0800B0421AD8CEB12068C168490777
:1052400017D5802D15D0402D13D00168C94309070B
:105250000FD401680025406800902046FFF7A1FEAA
:105260000820606484F840500120BDE8F8830320E2
:10527000FBE72068006835EA000004D00020B8424F
:10528000D2D00020F1E70120F9E7000010B50D4C65
:1052900020680168890605D56FF0200101600A4881
:1052A000006880472068016809060AD50168490638
:1052B00007D56FF08001016004480068BDE8104028
:1052C000004710BD040A0020640000206800002090
:1052D00010B50448FEF7B8F8BDE81040014800F0EA
:1052E00003B800004C0A002038B504460068224983
:1052F00088423FD10168890702D40168490717D560
:105300006FF00201016021686FF004000860606CBA
:1053100000F004006064606C00F0020060642046ED
:10532000FEF758F84FF4807214492046FEF7A4FAAD
:1053300020680168C943C9061CD401684068009010
:105340000F48006840680F4C40422178401AC5B2AF
:105350000D48FDF7BFFE094821782A4601440B4855
:10536000FCF72CF8002802DA09A000F0A1F8207858
:105370002844207038BD000000480040BC080020D0
:10538000940A002030000020740800208C010020C6
:105390004649464F2046756C6C0A0000FEE7000047
:1053A0002DE9F041070017D000241C4E4FF47A7805
:1053B0000BE031190D463846FBF7C6FF2946434638
:1053C00001221748FEF7B2FA641C3846FFF737FC93
:1053D0000028EED0002030551248007860B10A2233
:1053E00011A10E48FAF74DFF30B112A10B48FAF7A0
:1053F00021FF08B1FFF748F8084908482039FAF7B3
:1054000019FF10B10120BDE8F0810BA10348FAF7A4
:1054100011FF0028F7D00220F5E700005304002018
:10542000BC0900202000002041542B4D5154545001
:10543000554200007B0000004552524F520D0A00B9
:105440001CB500218DF804108DF805004FF47A701A
:105450000090022301AA78210148FCF703FF1CBD3C
:10546000D80700201CB540218DF804108DF80500E8
:105470004FF47A700090022301AA78210148FCF7CA
:10548000F1FE1CBDD807002003B583B04FF47A733A
:10549000012204A98DE80E0013460246A02103480C
:1054A000FDF7A4F805B0012000BD0000D8070020DA
:1054B0000FB4054B10B503A9044A029800F05CF93B
:1054C00010BC5DF814FB0000656800088001002036
:1054D0000FB4084B10B504A902AA039800F04CF9C8
:1054E000044602A9002000F0CAFC204610BC5DF86A
:1054F00014FB00007F5E00080907090E002804DB8A
:1055000000F1E02080F80014704700F00F0000F177
:10551000E02080F8141D704730B528B1144C031FEB
:10552000002021680A4605E0084630BD9A4203D8AB
:1055300010465268002AF9D1002800D041680BD0EB
:105540000468A3EB0005A54204D11B681C44034674
:10555000046002E0436000E023603AB11C68D51AA1
:10556000A54203D115682C441C6052685A6030BDB6
:10557000840100202DE9F04782460F4C10480D4E63
:105580000E4F001B4FF0000820F007054FF00109F7
:1055900000221146504601F0AFF9002802D13068D0
:1055A00010B10020BDE8F0873C60C4E90058C6F89F
:1055B0000090EDE7880100205C19002084010020A4
:1055C000581B002002E008C8121F08C1002AFAD1A7
:1055D00070477047002001E001C1121F002AFBD173
:1055E000704700002DE9FF5F82B00021DDE9043043
:1055F000020DDDF840B0034318D044F61050A2F27B
:10560000FF3242431514119801281FD0A5EB0B005F
:10561000401C5FEA000A4FF000064E4FDFF8389159
:10562000B046504615D5CAF1000413E01198012484
:105630004AA3012801D16FEA0B010298119AC0E92F
:105640000031C0E9024206B0BDE8F09FCBF1000096
:10565000DFE704460021404A491842EB0450CDE9F7
:10566000001012E0E00707D032463B46404649466C
:10567000FBF7F3F88046894632463B46104619460A
:10568000FBF7EBF806460F466410002CEAD1DDE983
:105690000401DDE90023BAF1000F06DAFBF7DDF8BB
:1056A00042464B46FBF7D9F805E0FBF748F942467E
:1056B0004B46FBF744F904460E460022284BFBF705
:1056C00021FA03D84FF0FF30014607E00022254BB6
:1056D00020463146FBF71AF8FBF7BEFB102409E021
:1056E000002C0ADB0A220023FBF756FA039B303218
:1056F0001A55641E50EA0102F2D1641C039AC4F1E7
:1057000011031444119A012A03D0012208430DD138
:105710000AE0084304D000204FF0110B119072E70B
:10572000A3EB0B056D1E0DE05B4504DD4FF00002A1
:1057300005F1010504E003DA4FF00002A5F10105CF
:10574000002AECD002981199C0E90231C0E9004565
:1057500079E70000000014400000F03F3000000036
:105760000000F0430000E03F30380A2801D2012059
:1057700070470020704700002DE9FF4F95B09A4612
:10578000884606460025EEE1252877D100242746E5
:10579000F94A0121039400E0044316F8013F203B3D
:1057A00001FA03F01042F7D130782A2811D06FF0B7
:1057B0002F033078A0F13002092A16D8039A44F05A
:1057C000020402EB820203EB42021044761C0390B7
:1057D000EFE758F8042B0392002A03DA504244F40E
:1057E0000054039044F00204761C30782E2816D121
:1057F00016F8010F44F004042A280DD06FF02F0290
:105800003078A0F13003092B09D807EB870302EBAE
:105810004303C718761CF3E758F8047B761C3078EE
:105820006C280FD006DC4C2817D068280DD06A28C9
:1058300014D104E0742810D07A280FD10DE044F47C
:1058400000140AE044F4801401E044F44014727837
:10585000824202D104F58014761C761C30786628CA
:105860000BD013DC582877D009DC002875D04528E8
:10587000F6D04628F4D047281AD193E118E06328DF
:1058800035D0642879D0652812D18BE1702873D087
:1058900008DC6728F1D069286FD06E280DD06F28FA
:1058A00006D1ACE073282CD0752874D0782853D05A
:1058B0005246179990476D1C54E1C4F302500228D8
:1058C00009D003280DD0D8F8001004280DD00D60A1
:1058D00008F1040846E1D8F80010EA17C1E90052BF
:1058E000F6E7D8F800100D80F2E70D70F0E718F831
:1058F000041B8DF8001000208DF80100EB460120FC
:1059000003E058F804BB4FF0FF3061074FF000018F
:1059100002D40DE009F101018946B9420FDA81454F
:10592000F8DB1BF809100029F4D108E009F10101A6
:1059300089468142FADB1BF809100029F6D1039849
:105940005346A0EB090721463846179A00F080FA23
:10595000284400EB090507E044E008E10DE01BF8EE
:10596000010B524617999047B9F10109F7D25346F6
:1059700021463846179AF2E039E00A21C4F3025270
:105980004FF0000B0091022A06D058F8040BC11703
:10599000032A09D00AE023E008F1070020F00702FB
:1059A000F2E80201904605E000B2C117042A01D1D5
:1059B00040B2C117002906DA0A460021404261EBD5
:1059C00002012D2202E0220504D52B228DF80420AD
:1059D000012203E0E20701D02022F7E7914657E0D9
:1059E0000A2100E010214FF0000B00910BE0102184
:1059F0004FF0000B44F004040827009103E0082056
:105A00004FF0000B0090C4F30252022A05D058F860
:105A1000040B0021032A08D008E008F1070020F059
:105A20000702F2E80201904603E080B2042A00D1A6
:105A3000C0B24FF0000922072AD53278702A07D069
:105A4000DDF800C08CF0100C5CEA0B0C05D00EE009
:105A500040228DF80420012208E050EA010306D01C
:105A600030238DF804308DF8052002229146009BEA
:105A700083F0080353EA0B030AD150EA010201D173
:105A8000620705D530228DF804204FF001097F1EF2
:105A90003278582A04D039A20C920CAA02920BE058
:105AA0003BA2F9E75B46009AFBF776F80C9B9B5C00
:105AB000029A521E0292137050EA0102F2D1029829
:105AC00004A9081A00F1200B600702D524F48034E1
:105AD00000E001275F4502DDA7EB0B0000E000209E
